:100000000C9484170C94B5170C94B5170C94B51771
:100010000C94B5170C94B5170C94B5170C94B51730
:100020000C94B5170C94B5170C94B5170C94B51720
:100030000C94B5170C94B5170C94B5170C94B51710
:100040000C94B5170C94E4A20C94B5170C94B51746
:100050000C94B5170C94B5170C9421940C9405913D
:100060000C94B5170C94308A0C94268A0C94B5170E
:100070000C94B5170C94B5170C94B5170C94B517D0
:100080000C943C640C94B5170C94B5170C94B517EC
:100090000C94B5170C94B5170C94B5170C94B517B0
:1000A0000C94B5170C94B5170C940E640C94B517FA
:1000B0000C94B5170C94B5170C94B5170C94E06319
:1000C0000C94B5170C94B5170C94B5170C94B51780
:1000D0000C94B5170C94B5170C94B5170C94B51770
:1000E0000C94B517084AD73B3BCE016E84BCBFFDCC
:1000F000C12F3D6C74319ABD56833DDA3D00C77FF8
:1001000011BED9E4BB4C3E916BAAAABE0000008090
:100110003F05A84CCDB2D44EB93836A9020C50B91F
:10012000918688083CA6AAAA2ABE000000803F004B
:100130004E414E494E495459494E46CDCCCC3D0ACC
:10014000D7233C17B7D13877CC2B329595E6241FAF
:10015000B14F0A000020410000C84200401C462068
:10016000BCBE4CCA1B0E5AAEC59D7400407A10F33B
:100170005A00A0724E18090010A5D4E80000E876D5
:1001800048170000E40B54020000CA9A3B0000002C
:10019000E1F505000080969800000040420F000045
:1001A00000A08601000000102700000000E8030006
:1001B0000000006400000000000A000000000001D0
:1001C00000000000002C76D888DC674F0823DFC1D0
:1001D000DFAE59E1B1B796E5E3E453C63AE651998B
:1001E0007696E8E6C28426EB898C9B62ED407C6FB4
:1001F000FCEFBC9C9F40F2BAA56FA5F490055A2A6B
:10020000F75C936B6CF9676DC11BFCE0E40D47FE76
:10021000F520E6B500D0ED902E030094357705006B
:1002200080841E080000204E0A000000C80C3333F2
:1002300033330F986E12831141EF8D2114893BE601
:100240005516CFFEE6DB18D1844B381BF77C1D908A
:100250001DA4BBE424203284725E228100C9F124F3
:10026000ECA1E53D275072696E742050617573658D
:1002700064004572726F722077726974696E6720CC
:10028000746F20454550524F4D210A0025301D0CFA
:10029000282924311C0B4527232F1B164443212AD0
:1002A000193F40222B1A414203380906360308023F
:1002B000060001627573793A207061757365642078
:1002C000666F7220696E7075740A00627573793A90
:1002D0002070617573656420666F72207573657236
:1002E0000A00627573793A2070726F63657373697F
:1002F0006E670A0053544F505045442E20005072F0
:10030000696E7465722073746F70706564206475B3
:100310006520746F206572726F72732E2046697843
:1003200020746865206572726F7220616E6420753A
:100330007365204D39393920746F2072657374618B
:1003400072742E202854656D7065726174757265C3
:100350002069732072657365742E2053657420695B
:100360007420616674657220726573746172746959
:100370006E67290A004E6F20436865636B73756D65
:100380002077697468206C696E65206E756D626592
:10039000722C204C617374204C696E653A200063A6
:1003A0006865636B73756D206D69736D61746368E7
:1003B0002C204C617374204C696E653A20004C69A6
:1003C0006E65204E756D626572206973206E6F7464
:1003D000204C617374204C696E65204E756D6265AA
:1003E000722B312C204C617374204C696E653A205D
:1003F000004D313130004B494C4C206361757365C1
:1004000064206279204B494C4C20627574746F6E85
:100410002F70696E0A004B494C4C206361757365FF
:100420006420627920746F6F206D75636820696E37
:100430006163746976652074696D65202D2063752C
:100440007272656E7420636F6D6D616E643A200028
:10045000506C656173652052657365740050524934
:100460004E5445522048414C5445440025533A20AF
:100470002553004B494C4C45442E20005072696E68
:100480007465722068616C7465642E206B696C6C95
:1004900028292063616C6C6564210A0053544F5015
:1004A0005045442E20005072696E7465722073743A
:1004B0006F707065642064756520746F206572725A
:1004C0006F72732E20466978207468652065727299
:1004D0006F7220616E6420757365204D3939392043
:1004E000746F20726573746172742E202854656D68
:1004F00070657261747572652069732072657365C9
:10050000742E2053657420697420616674657220AE
:1005100072657374617274696E67290A0065636835
:100520006F3A004572726F723A0042696C696E658B
:100530006172204C6576656C696E672047726964EC
:100540003A0A0053544F502063616C6C656420621A
:10055000656361757365206F6620424C546F7563E7
:1005600068206572726F72202D20726573746172DB
:10057000742077697468204D3939390A0053544F13
:10058000502063616C6C656420626563617573659E
:10059000206F6620424C546F756368206572726FDD
:1005A00072202D207265737461727420776974688B
:1005B000204D3939390A004732362048656174695F
:1005C0006E67204E6F7A7A6C650047323620486538
:1005D0006174696E67204265640057616974696E71
:1005E0006720666F72206865617475702E0A004618
:1005F00069786564204C656E677468205072696D17
:100600006500446F6E65205072696D696E67004DBC
:10061000616E75616C207072696D696E672E2E2E29
:10062000004732362043616E63656C6564004C653B
:100630006176696E6720473236003F5370656369A3
:100640006669656420582C5920636F6F7264696E07
:10065000617465206F7574206F6620626F756E64BB
:10066000732E0A003F2852296570656174207661F7
:100670006C7565206E6F7420706C61757369626C47
:10068000653B206D757374206265206174206C6514
:1006900061737420312E0A003F5370656369666987
:1006A0006564206E6F7A7A6C652074656D70657212
:1006B0006174757265206E6F7420706C61757369FA
:1006C000626C652E0A003F537065636966696564F4
:1006D0002066696C616D656E742073697A65206E41
:1006E0006F7420706C61757369626C652E0A003FCF
:1006F000537065636966696564207072696D652011
:100700006C656E677468206E6F7420706C617573B1
:1007100069626C652E0A003F53706563696669659E
:1007200064206E6F7A7A6C652073697A65206E6FCB
:100730007420706C61757369626C652E0A003F529B
:10074000657472616374696F6E204D756C74697045
:100750006C696572206D75737420626520737065B5
:100760006369666965642E0A003F53706563696654
:100770006965642052657472616374696F6E204D9F
:10078000756C7469706C696572206E6F7420706C22
:1007900061757369626C652E0A003F537065636909
:1007A00066696564206C617965722068656967684F
:1007B00074206E6F7420706C61757369626C652E45
:1007C0000A0043292E0A003F537065636966696514
:1007D00064206265642074656D7065726174757201
:1007E00065206E6F7420706C61757369626C652032
:1007F0002834302D00473236207374617274696E6C
:10080000672E2E2E0A004F46460A00466164652078
:100810004865696768742000426564204C657665A8
:100820006C696E6720004661696C656420746F2096
:10083000656E61626C6520426564204C6576656C0E
:10084000696E670A00496E76616C6964206D657334
:10085000682E0A0050726F62696E6720506F696E71
:10086000740025532025692F2569002E0A002F00CA
:1008700050726F62696E67206D65736820706F6972
:100880006E742000202844525952554E2900473298
:1008900039204175746F20426564204C6576656C23
:1008A000696E67003F20284C2C522C462C42292090
:1008B0006F7574206F6620626F756E64732E0A0008
:1008C0003F2856296572626F7365206C6576656C8A
:1008D00020696D706C61757369626C652028302DBC
:1008E00034292E0A00426164205A2076616C7565B5
:1008F0000A004E6F2062696C696E656172206772D2
:1009000069640A0020496E76616C696420657874B8
:10091000727564657220004361703A00290A0020F4
:10092000746F20003F5A206F7574206F66207261CB
:100930006E6765202800290A0020746F20003F5947
:10094000206F7574206F662072616E676520282D98
:1009500000290A0020746F20003F58206F75742012
:100960006F662072616E676520282D0050726F627D
:1009700065204F6666736574205800526573656E16
:10098000643A20002569730025696D20256973008C
:100990002569682025696D20256973002569642013
:1009A0002569682025696D202569730025697920EE
:1009B000256964202569682025696D2025697300F3
:1009C00023646566696E652044454641554C545F15
:1009D00000626564004B6420004B6920004B70206E
:1009E00000504944204175746F74756E65206669C6
:1009F0006E69736865642120507574207468652081
:100A00006C617374204B702C204B6920616E6420E4
:100A10004B6420636F6E7374616E74732066726FC3
:100A20006D2062656C6F7720696E746F20436F6E06
:100A300066696775726174696F6E2E680A00504945
:100A400044204175746F74756E65206661696C65CC
:100A500064212074696D656F75740A00546865724D
:100A60006D616C2052756E617761790048656174C3
:100A7000696E67206661696C656400504944204175
:100A800075746F74756E65206661696C656421208C
:100A900054656D706572617475726520746F6F2036
:100AA000686967680A00204B643A2000204B693A65
:100AB0002000204B703A20000A20436C6173736958
:100AC0006320504944200A00204B643A2000204B08
:100AD000693A2000204B703A20000A204E6F206FA8
:100AE00076657273686F6F740A002054753A20003F
:100AF000204B753A2000206D61783A2000206D6906
:100B00006E3A200020643A200020626961733A2026
:100B100000504944204175746F74756E652073747C
:100B20006172740A00504944204175746F74756E87
:100B300065206661696C6564212054656D7065721D
:100B4000617475726520746F6F20686967680A0048
:100B5000504944204175746F74756E6520666169F3
:100B60006C656421204261642065787472756465E7
:100B700072206E756D6265720A004572723A207558
:100B800074663820666F6E74206E6F7420696E69AB
:100B90007469616C697A65642E004572723A2075D9
:100BA00074663820666F6E74206E6F7420696E698B
:100BB0007469616C697A65642E004572723A2075B9
:100BC00074663820666F6E74206E6F7420696E696B
:100BD0007469616C697A65642E0046696C2E2044E4
:100BE00069612E004520696E206D6DC2B30020083A
:100BF0002046616374002008204D617800200820A1
:100C00004D696E004F6666004F6E004175746F74DB
:100C1000656D70005654726176204D696E00566D98
:100C2000696E00566D6178204500566D6178205AD6
:100C300000566D6178205900566D6178205800414A
:100C40006D6178204500416D6178205A00416D61E9
:100C500078205900416D6178205800412D5472610F
:100C600076656C00412D5265747261637400416356
:100C700063656C0056652D4A65726B00565A2D4AA5
:100C800065726B0056592D4A65726B0056582D4A95
:100C900065726B004573746570732F6D6D005A73C8
:100CA000746570732F6D6D005973746570732F6D5B
:100CB0006D005873746570732F6D6D0041647661BB
:100CC0006E6365642053657474696E6773003F00DA
:100CD00043616E63656C00496E6974004D3432384F
:100CE00000496E697469616C697A652045455052A6
:100CF0004F4D0046696C616D656E740054656D7092
:100D0000657261747572650053746570732F6D6DD3
:100D1000004A65726B00416363656C65726174695A
:100D20006F6E0056656C6F6369747900536574204B
:100D3000486F6D65204F66667365747300436F6E10
:100D400066696775726174696F6E0053746F72655E
:100D50002053657474696E6773004C6F616420532F
:100D6000657474696E67730050726F6265205A20F3
:100D70004F666673657400466164652048656967FF
:100D80006874004F6666004F6E00426564204C65D3
:100D900076656C696E67004732380A47323900471A
:100DA0003239004C6576656C20426564004175748B
:100DB0006F20486F6D65004D6F74696F6E00436DF5
:100DC000643A2053746F7700436D643A2044657031
:100DD0006C6F7900436D643A2053572D4D6F6465F5
:100DE00000436D643A2053656C662D54657374003E
:100DF000436D643A20526573657400426564004E29
:100E00006F7A7A6C650046616E2053706565640088
:100E1000436F6E66696775726174696F6E005265C3
:100E200073746F7265206661696C73616665004CEE
:100E30006F61642053657474696E67730053746FD7
:100E400072652053657474696E67730050726568CB
:100E50006561742041425320436F6E660050726595
:100E60006865617420504C4120436F6E6600424CAF
:100E7000546F7563680050726F6265205A204F6628
:100E80006673657400416476616E636564205365C2
:100E90007474696E6773004D61696E00436F6E66AE
:100EA000696775726174696F6E0054656D70657203
:100EB0006174757265004D6F74696F6E0054756E64
:100EC0006500496E666F2053637265656E004D6FF5
:100ED00074696F6E004D38340044697361626C65EB
:100EE00020537465707065727300426564204C65B0
:100EF00076656C696E6700473238205A00486F6D1E
:100F000065205A00473238205900486F6D652059D6
:100F100000473238205800486F6D6520580047322E
:100F200038004175746F20486F6D65004D61696EC2
:100F3000005072656865617420504C4120456E64B4
:100F4000005072656865617420504C4120426564B0
:100F500000507265686561742041425320456E649B
:100F60000050726568656174204142532042656497
:100F70000054656D706572617475726500436F6FC2
:100F80006C646F776E0050726568656174204142D1
:100F900053005072656865617420504C4100466191
:100FA0006E205370656564203D00426564004E6F9D
:100FB0007A7A6C65004D61696E0042616279737482
:100FC0006570205A00466C6F770046616E20537042
:100FD000656564203D00426564004E6F7A7A6C65F9
:100FE000005370656564004D61696E00202020200B
:100FF0002020200020202020001FE0201020102092
:1010000010102010202010201030300840048003E1
:10101000001FE03FF03FF03FF01FE01FE03FF03FD8
:10102000F03FF00FC0078003003FFFF03800703042
:10103000FC3020FC102078102030102C00D02E31F5
:10104000D02F7BD02F7BD02E31D02C00D020301051
:1010500020781020FC1030FC303800703FFFF03F4B
:10106000FFF03800703186302387102787902F8754
:10107000D02F03D02030102078102078102030108E
:101080002F03D02F87D027879023871031863038C1
:1010900000703FFFF01FFFF81FFFF8041040020828
:1010A0002002082004104008208010410010410058
:1010B0000820800410400000001FFFF81FFFF854B4
:1010C00068696E6B65722056322052656164792EB4
:1010D000005072696E74696E672E2E2E00000096A5
:1010E0004300007A430000AF43000000000000000E
:1010F0000000000000000C0D00FE07022603BC01EA
:101100007FFE08FE08FE05080806000040F0C888BB
:1011100088987810050808060000C0F88888888834
:1011200088F80505050600012030F830200508087C
:101130000600002070F820202020E00509090600A4
:10114000FF2070A8A8B88888702005060606000150
:10115000E08CEA8C8A0A0509090600FFF8A888884D
:10116000888888A8F8050A0A0600FE2050505050CA
:1011700088A8A8887003030306000340A040FFFF6F
:10118000FFFFFFFFFFFFFFFFFFFFFFFFFFFFFFFF6F
:10119000FFFFFFFF0000000605FF01070706020032
:1011A00080808080800080030303060105A0A0A04A
:1011B00005060606000050F85050F85005090906CB
:1011C00000FF2070A8A07028A8702005070706005F
:1011D00000C8C8102040989805070706000040A0E6
:1011E000A040A890680103030602058080800309DF
:1011F000090601FF2040408080804040200309090B
:101200000601FF804040202020404080050707065F
:10121000000020A8702070A8200505050600012008
:1012200020F820200203030601FFC04080050101D1
:10123000060003F8020202060100C0C00507070607
:1012400000000810102040408005070706000070CD
:101250008898A8C8887003070706010040C040406E
:101260004040E0050707060000708808102040F89D
:10127000050707060000F808103008887005070702
:1012800006000010305090F8101005070706000007
:10129000F880F008088870050707060000304080D5
:1012A000F0888870050707060000F8081010202055
:1012B0002005070706000070888870888870050779
:1012C000070600007088887808106002050506018E
:1012D00000C0C000C0C00206060601FFC0C000C0BA
:1012E00040800305050601012040804020050303DE
:1012F000060002F800F803050506010180402040C1
:1013000080050707060000708810202000200507D0
:10131000070600007088B8A8B880700507070600A7
:1013200000708888F8888888050707060000F0485C
:1013300048704848F00507070600007088808080E4
:101340008870050707060000F04848484848F0053F
:101350000707060000F88080F08080F80507070680
:101360000000F88080F0808080050707060000708C
:10137000888080988870050707060000888888F8AC
:10138000888888030707060100E04040404040E0AD
:1013900005070706000038101010109060050707B9
:1013A0000600008890A0C0A09088050707060000EE
:1013B000808080808080F805070706000088D8A814
:1013C000888888880507070600008888C8A8988844
:1013D00088050707060000708888888888700507D8
:1013E00007060000F08888F0808080050707060067
:1013F0000070888888A89068050707060000F088B4
:1014000088F0A090880507070600007088807008A3
:101410008870050707060000F820202020202005FE
:1014200007070600008888888888887005070706EF
:10143000000088888888505020050707060000882B
:10144000888888A8A85005070706000088885020CB
:101450005088880507070600008888502020202033
:10146000050707060000F80810204080F803090966
:101470000601FFE080808080808080E0050707060D
:101480000000804040201010080309090601FFE019
:1014900020202020202020E0050303060005205006
:1014A000880501010600FEF80303030601058040DC
:1014B00020050505060000700878887805070706EE
:1014C00000008080F0888888F0050505060000701F
:1014D00080808870050707060000080878888888DB
:1014E000780505050600007088F08070050707067E
:1014F0000000304840E04040400507070600FE700D
:101500008888887808700507070600008080F088C2
:101510008888880307070601004000C0404040E07B
:101520000409090601FE100030101010109060052B
:10153000070706000080808890E090880307070670
:101540000100C04040404040E0050505060000D0D5
:10155000A8A8A8A8050505060000B0C888888805C1
:10156000050506000070888888700507070600FEDC
:10157000F0888888F080800507070600FE78888854
:1015800088780808050505060000B0C88080800539
:10159000050506000078807008F0050707060000C2
:1015A0002020F820202018050505060000888888DE
:1015B00098680505050600008888885020050505FF
:1015C0000600008888A8A850050505060000885078
:1015D0002050880507070600FE8888885020408034
:1015E000050505060000F8102040F803090906016A
:1015F000FF2040404080404040200109090602FF92
:101600008080808080808080800309090601FF80BF
:10161000404040204040408005030306000248A8A7
:1016200090FF290A002062797465733B206372631E
:10163000200053657474696E67732053746F72650C
:1016400064202800454550524F4D206461746173F9
:10165000697A65206572726F722E0A00290A00206D
:1016600062797465733B2063726320002073746F2A
:101670007265642073657474696E67732072657433
:10168000726965766564202800202863616C637543
:101690006C6174656429210A0020213D20004545C4
:1016A00050524F4D20435243206D69736D617463F6
:1016B00068202D202873746F7265642920002053E0
:1016C000697A653A2000496E6465783A2000204DB9
:1016D00061726C696E3D563734290A004545505297
:1016E0004F4D2076657273696F6E206D69736D6101
:1016F0007463682028454550524F4D3D0048617243
:1017000064636F6465642044656661756C7420531E
:10171000657474696E6773204C6F616465640A0058
:1017200000009643000096430000A0400000C8411E
:101730000000A0420000A0420000C8430000BA42DE
:10174000DC050000DC05000032000000DC050000C4
:101750003A0A0020204D3835312058005A2D507259
:101760006F6265204F6666736574002044002049EF
:101770000020204D33303420500020440020490008
:1017800020204D333031205000504944207365747F
:1017900074696E67733A0A002046002042002048B0
:1017A0000020204D3134352053004D61746572693D
:1017B000616C2068656174757020706172616D651F
:1017C000746572733A0A00204A002020473239209B
:1017D0005720490020204D34323020530041757489
:1017E0006F20426564204C6576656C696E673A0AC5
:1017F0000020204D323036205800486F6D65206F34
:1018000066667365743A0A00205400205300202055
:101810004D32303520420020453C6D61785F655F78
:101820006A65726B3E0020583C6D61785F785F6A34
:1018300065726B3E20593C6D61785F795F6A6572B5
:101840006B3E205A3C6D61785F7A5F6A65726B3ED1
:1018500000416476616E6365643A20423C6D696E56
:101860005F7365676D656E745F74696D655F7573D1
:101870003E20533C6D696E5F666565647261746598
:101880003E20543C6D696E5F74726176656C5F6674
:10189000656564726174653E00205400205200202A
:1018A000204D323034205000416363656C657261B5
:1018B00074696F6E2028756E6974732F7332293ABC
:1018C00020503C7072696E745F616363656C3E208A
:1018D000523C726574726163745F616363656C3EF0
:1018E00020543C74726176656C5F616363656C3E25
:1018F0000A0020204D3230312058004D6178696D4A
:10190000756D20416363656C65726174696F6E20EB
:1019100028756E6974732F7332293A0A0020204D9E
:101920003230332058004D6178696D756D206665E1
:10193000656472617465732028756E6974732F73A2
:10194000293A0A0053746570732070657220756EB1
:1019500069743A0A0020204D3230302044300A00A9
:1019600020204D3230302044002044697361626C85
:1019700065640A0046696C616D656E7420736574F8
:1019800074696E67733A0020204D3134392043204A
:101990003B20556E69747320696E2043656C7369D2
:1019A00075730A0020286D6D2900202047323120F0
:1019B0002020203B20556E69747320696E206D6D68
:1019C000006F70656E0054524947474552454400C8
:1019D0003A20007A5F6D696E00795F6D696E0078FC
:1019E0005F6D696E005265706F7274696E67206515
:1019F0006E6473746F70207374617475730A002061
:101A00005A3A0020593A0020436F756E7420583AB4
:101A10000020453A00205A3A0020593A00583A002E
:101A200020746F6F206C6F6E6720657874727573A9
:101A3000696F6E2070726576656E7465640A002049
:101A4000636F6C6420657874727573696F6E207053
:101A5000726576656E7465640A00486F6D696E67BD
:101A6000204661696C6564000000484200004842FD
:101A7000000080405761726E696E673A20486F6D52
:101A8000696E672042756D702044697669736F7264
:101A9000203C20310A000202040000A0400000A007
:101AA00040000000400000964300007A430000AF71
:101AB0004324F4D43050C38E20C2A24017828B70CE
:101AC00011127A910D816CD90AA861E108C7586694
:101AD00007615143061E4B5D05C145A7041A41111C
:101AE00004093D9803713931034036DB02653391B7
:101AF00002D4305402802E1D02632CEE01752AC5DB
:101B000001B028A001102781018F2564012B244BEF
:101B100001E0223401AC211F018D200D01801FFC4A
:101B200000841EED00971DDF00B81CD200E61BC626
:101B300000201BBC00641AB200B219A8000A19A048
:101B4000006A189900D117910040178B00B51684D0
:101B50000031167E00B31579003A157300C7146F73
:101B60000058146A00EE1366008813630025135EA4
:101B700000C7125B006C12570015125400C11151BE
:101B80000070114F0021114B00D61049008D1047F5
:101B9000004610440002104200C00F4000800F3E7B
:101BA00000420F3C00060F3B00CB0E3800930E376F
:101BB000005C0E3500270E3400F30D3200C10D31EC
:101BC00000900D3000600D2E00320D2D00050D2C03
:101BD00000D90C2B00AE0C2900850C29005C0C27C9
:101BE00000350C27000E0C2600E80B2400C40B2443
:101BF00000A00B23007D0B23005A0B2100390B2181
:101C000000180B2000F80A1F00D90A1E00BB0A1E8C
:101C1000009D0A1D00800A1D00630A1C00470A1B64
:101C2000002C0A1B00110A1A00F7091A00DD091915
:101C300000C4091900AB091900920917007B0918A3
:101C400000630917004C0916003609160020091612
:101C5000000A091500F5081500E0081400CC081466
:101C600000B8081400A4081400900813007D08129E
:101C7000006B0813005808120046081200340811BF
:101C800000230811001208110001081100F00710CC
:101C900000E0071000D0071000C0071000B0070FC9
:101CA00000A107100091070E0083070F0074070FB3
:101CB0000065070E0057070E0049070E003B070D91
:101CC000002E070E0020070D0013070D0006070D5C
:101CD00000F9060C00ED060D00E0060C00D4060C21
:101CE00000C8060C00BC060C00B0060C00A4060BD5
:101CF0000099060C008D060B0082060B0077060B80
:101D0000006C060B0061060A0057060B004C060A21
:101D10000042060A0038060A002E060A0024060AB7
:101D2000001A060A001006090007060A00FD050948
:101D300000F4050900EB050900E2050900D90509D1
:101D400000D0050900C7050900BE050900B5050852
:101D500000AD050800A50509009C050800940508CC
:101D6000008C050800840508007C0508007405083F
:101D7000006C050700650508005D050700560508AD
:101D8000004E050700470507004005080038050715
:101D900000310507002A050700230507001C05067A
:101DA00000160507000F05070008050600020507D5
:101DB00000FB040600F5040700EE040600E8040634
:101DC00000E2040700DB040600D5040600CF040689
:101DD00000C9040600C3040600BD040600B70406DB
:101DE00000B1040500AC040600A6040600A004052A
:101DF000009B04060095040500900406008A040573
:101E00000085040500800406007A040500750405B9
:101E100000700405006B04050066040500610405FC
:101E2000005C04050057040500520405004D04053C
:101E30000048040500430405003E0404003A04057C
:101E40000035040500300404002C040500270404B8
:101E500000230405001E0404001A040400160405EF
:101E600000110404000D0404000904050004040426
:101E70000000040400FC030400F8030400F403045D
:101E800000F0030400EC030400E8030400E403048E
:101E900000E0030400DC030400D8030400D40304BE
:101EA00000D0030400CC030400C8030300C50303EF
:101EB0000024F404D9201BC40C5C0E9804C4095FF0
:101EC0000265077101F405F900FB04B300480487BB
:101ED00000C10369005803550003034500BE023AE0
:101EE000008402310053022A002902250004022046
:101EF00000E4011C00C8011900AF0117009801148B
:101F00000084011300710110006101100051010EE5
:101F10000043010D0036010B002B010B0020010BCB
:101F200000150109000C01090003010800FB00086D
:101F300000F3000800EB000700E4000600DE0006E6
:101F400000D8000600D2000600CC000500C700053E
:101F500000C2000500BD000400B9000400B5000483
:101F600000B1000400AD000400A9000400A50003B6
:101F700000A20003009F0004009B000300980003E0
:101F8000009500020093000300900003008D000202
:101F9000008B00030088000200860002008400031A
:101FA00000810002007F0002007D0002007B000231
:101FB0000079000200770001007600020074000240
:101FC0000072000100710002006F0002006D00014C
:101FD000006C0002006A0001006900020067000155
:101FE000006600010065000100640002006200015B
:101FF0000061000100600001005F0002005D00015F
:10200000005C0001005B0001005A00010059000162
:102010000058000100570001005600010055000162
:102020000054000100530000005300010052000161
:102030000051000100500001004F0001004E00005F
:10204000004E0001004D0001004C0001004B00005B
:10205000004B0001004A0001004900010048000057
:102060000048000100470001004600000046000152
:10207000004500000045000100440001004300004D
:102080000043000100420000004200010041000046
:102090000041000100400001003F0000003F00013E
:1020A000003E0000003E0001003D0000003D000138
:1020B000003C0000003C0000003C0001003B000030
:1020C000003B0001003A0000003A00010039000026
:1020D000003900010038000000380000003800011D
:1020E0000037000000370001003600000036000015
:1020F0000036000100350000003500000035000109
:1021000000340000003400000034000100330000FF
:1021100000330000003300010032000000320000F4
:1021200000320001003100000031000000310001E8
:10213000003000000030000000300001002F0000DF
:10214000002F0000002F0000002F0001002E0000D3
:10215000002E0000002E0001002D0000002D0000C8
:10216000002D0000002D0001002C0000002C0000BC
:10217000002C0000002C0001002B0000002B0000B0
:10218000002B0000002B0001002A0000002A0000A4
:10219000002A0000002A0001002900000029000098
:1021A000002900000029000000290001002800008B
:1021B000002800000028000000280000002800017E
:1021C0000027000000270000002700000027000073
:1021D0000027000100260000002600000026000065
:1021E0000026000000260001002500000025000058
:1021F000002500000025000000250000002500014A
:10220000002400000024000000240000002400003E
:102210000024000100230000002300000023000030
:102220000023000000230000002300000023000121
:102230000022000000220000002200000022000016
:102240000022000000220001002100000021000007
:1022500000210000002100000021000000210000FA
:1022600000210001002000000020000000200000EC
:1022700000200000002000000020000000200000DE
:1022800000200001001F0000001F0000001F0000D0
:10229000001F0000001F0000001F0000001F0001C1
:1022A000001E0000001E0000001E0000001E0000B6
:1022B00000043700001E290000511B0000581000C8
:1022C0000010090000CC0400007802000041010069
:1022D000004D6963726F737465707320756E6176FB
:1022E00061696C61626C650A0045313A20004530D5
:1022F0003A20005A3A2000593A20004D53312C4DD3
:1023000053322C4D53332050696E730A583A2000D3
:102310000042656400453100626564002C207379D9
:102320007374656D2073746F7070656421204865E7
:10233000617465725F49443A200048656174696E52
:1023400067206661696C656400546865726D616CD4
:102350002052756E617761790048656174696E67B6
:10236000204661696C65640048656174696E672028
:102370006661696C656400546865726D616C2052B9
:10238000756E6177617900544845524D414C205239
:10239000554E4157415900546865726D616C205229
:1023A000756E61776179004572723A204D415854DB
:1023B000454D50004D415854454D50207472696749
:1023C0006765726564004572723A204D494E544506
:1023D0004D50004D494E54454D5020747269676709
:1023E0006572656400202F002042403A0020403A88
:1023F0000020573A0020573A00496E76616C6964B4
:102400002065787472756465720A000000220025E8
:102410000028002B002E00310034000201000005CE
:102420000108010B01000020002300260029002CD8
:10243000002F003200000100000301060109010025
:10244000000A0B02090C0D0E08070304010000002E
:10245000000000000000000000000000000000007C
:102460000000000000000000000000121110000039
:10247000000000000000000000000000000000005C
:102480000000000000687474703A2F2F6D61726C48
:10249000696E66772E6F726700322E302E780001DB
:1024A000FFFFFFFFFFFFFFFFFFFFFFFFFF0FFFFF2C
:1024B000FFFFFFFFFFFFFFFFFFFFFF1E0000000009
:1024C00000000000000007FFFF38000000000000CF
:1024D0000000000003FFFF7000000000000000008B
:1024E000000001FFFF60000000000000000000008D
:1024F00000FFFF6000000000000000000000007FFF
:10250000FFC000000000000000007800003FFFC096
:102510000FC0FC00000000007818001FFFC03FE162
:10252000FF0000000000783C000FFFC07FF3FF8039
:1025300000000000783C0007FFC0FFFFFFC0000064
:102540000000783C0003FFC1F87F87E00000000036
:1025500078000001FFC1F03F03E0000000007800B8
:102560000000FFC1E01E01E01F0003E0783C03F023
:102570007FC1E01E01E07FC00FF8783C07FC3FC13F
:10258000E01E01E1FFE01FFC783C0FFE1FC1E01ED2
:1025900001E3FFF03FFE783C1FFE0FC1E01E01E3A8
:1025A000F3F83F3E783C3F3F07C1E01E01E7E0FC07
:1025B0007C1F783C3E1F07C1E01E01E7C07C7C0FFA
:1025C000783C3C0F03C1E01E01E7807C780F783C2B
:1025D0003C0F03C1E01E01E7803C7800783C3C0FD3
:1025E00003C1E01E01E7803C7800783C3C0F03C14A
:1025F000E01E01E7803C7800783C3C0F03C1E01E00
:1026000001E7C03C7800783C3C0F03C1E01E01E3C9
:10261000E03C78007C3C3C0F03C1E01E01E3FF3F3F
:10262000F8007FBC3C0F03C1E01E01E1FF3FF80052
:102630003FBFFC0F03C1E01E01E0FF3FF8001FBFDA
:10264000FC0F03C1E01E01E07F3FF8000FBFFC0F4D
:1026500003600000000000000000000000000760B0
:1026600000000000000000000000000006700000F4
:10267000000000000000000000000E380000000014
:1026800000000000000000001C1E00000000000010
:10269000000000000000780FFFFFFFFFFFFFFFFFBB
:1026A000FFFFFFFFF001FFFFFFFFFFFFFFFFFFFF47
:1026B000FFFF8000002100240027002A002D0030A9
:1026C00000330001010000040107010A01010210AA
:1026D000202008081020401020408002010201083C
:1026E00004020101020408102040808040201008EC
:1026F0000402018004020180402010080402010845
:1027000004020101020408102040800102040810A4
:102710002040800505050507050808080802020293
:10272000020A0A080804040404010101010101016C
:10273000010303030303030303040707070C0C0C43
:102740000C0C0C0C0C02020202060606060606061B
:10275000060B0B0B0B0B0B0B0B205049445F645407
:102760003A0020643A002069693A0020703A00205B
:1027700020506C616E6E6572427566666572427954
:102780007465733A20002046726565204D656D6F53
:1027900072793A2000436F6D70696C65643A20412C
:1027A000707220313220323032300A00204C617396
:1027B0007420557064617465643A20323031392D6B
:1027C00031322D3031207C20417574686F723A208F
:1027D000286E6F6E652C2064656661756C7420636D
:1027E0006F6E666967290A00322E302E780A004D16
:1027F00061726C696E0020536F6674776172652038
:1028000052657365740A00205761746368646F676A
:102810002052657365740A002042726F776E206FD4
:1028200075742052657365740A002045787465726A
:102830006E616C2052657365740A00506F77657223
:1028400055700A0073746172740A00456E64737483
:102850006F70730025532025632025632025632096
:10286000256300205A3A0020593A0020583A006562
:102870006E6473746F7073206869743A2000434FFC
:102880004D4D554E49434154494F4E0044525952C3
:10289000554E004552524F525300494E464F004547
:1028A00043484F0040012C0173012201AB01180184
:1028B000F3010E0148020401AC02FA002A03F00001
:1028C000C303E6008004DC006D05D2006C06C8007E
:1028D000C707BE007009B4006D0BAA00CB0DA000A5
:1028E000CF138C00F21B7800E9246400142E5000F2
:1028F0009C353C00B83A2800A03D14000B3F000076
:102900004D6F76652025736D6D00004D6F766520E7
:10291000302E316D6D004D6F766520316D6D004D3F
:102920006F76652031306D6D004D6F766520417892
:10293000697300486F74656E6420746F6F20636FF5
:102940006C64004578747275646572004D6F7665CD
:10295000205A004D6F76652059004D6F76652058DE
:10296000006F6B00454550524F4D204F4B0A004FB2
:10297000666673657473204170706C6965640045A8
:1029800072723A20546F6F206661722100546F6F2B
:10299000206661722066726F6D2072656665726571
:1029A0006E636520706F696E740A00FFFFFF0000A0
:1029B000000000000000000000004D6573682070FA
:1029C0006F696E742063616E6E6F74206265207231
:1029D00065736F6C7665640A004D34323120696E20
:1029E000636F727265637420706172616D65746586
:1029F000722075736167650A0064697300656E0013
:102A000043290A0061626C656420286D696E207438
:102A1000656D702000436F6C642065787472756416
:102A2000657320617265200020643A0020693A00D5
:102A300020703A0020643A0020693A0020703A0081
:102A4000496E76616C69642065787472756465722C
:102A50000A003A200020536572766F2000206F75BF
:102A600074206F662072616E67650A005365727626
:102A70006F200020466C6F773A20004F4646004F8B
:102A80004E0020580020204D61783A200020002080
:102A9000204D696E3A2000536F667420656E647332
:102AA000746F70733A20005741524E494E472120AF
:102AB0004C6F77205A204A65726B206D6179206CCB
:102AC00065616420746F20756E77616E7465642033
:102AD0007061757365732E0A002054002052004106
:102AE0006363656C65726174696F6E3A2050004D66
:102AF00031343520533C696E6465783E206F7574BF
:102B0000206F662072616E67652028302D31290A9A
:102B1000002F2F20004348414D4245525F54454D00
:102B20005045524154555245004D4F54494F4E5F08
:102B30004D4F44455300544845524D414C5F50520F
:102B40004F54454354494F4E004155544F52455000
:102B50004F52545F53445F535441545553005052A5
:102B60004F4D50545F535550504F525400454D45B2
:102B70005247454E43595F504152534552004341DD
:102B800053455F4C494748545F4252494748544E69
:102B900045535300544F47474C455F4C49474854B1
:102BA0005300534F4654574152455F504F5745527B
:102BB000004255494C445F50455243454E54004CE9
:102BC0004556454C494E475F44415441005A5F5079
:102BD000524F4245004155544F4C4556454C0050CC
:102BE00052494E545F4A4F420050524F475245534C
:102BF00053004155544F5245504F52545F54454D28
:102C00005000564F4C554D45545249430045455090
:102C1000524F4D0042494E4152595F46494C455F23
:102C20005452414E534645520053455249414C5F20
:102C3000584F4E5F584F4646004649524D574152F5
:102C4000455F4E414D453A4D61726C696E20322EA2
:102C5000302E7820284769744875622920534F55D3
:102C60005243455F434F44455F55524C3A68747434
:102C700070733A2F2F6769746875622E636F6D2FBA
:102C80004D61726C696E4669726D776172652F4D28
:102C900061726C696E2050524F544F434F4C5F56D7
:102CA000455253494F4E3A312E30204D4143484909
:102CB0004E455F545950453A5468696E6B657220B1
:102CC00056322045585452554445525F434F554E55
:102CD000543A3120555549443A636564653261324E
:102CE000662D343161322D343734382D396231322A
:102CF0002D6335356336326633363766660A0054DF
:102D000068696E6B6572205632204F46462E00422F
:102D1000656420436F6F6C696E672E2E2E004265CE
:102D2000642048656174696E672E2E2E004D313126
:102D3000332053004D3131322053687574646F77FE
:102D40006E006F6666009F289A2893288C287E283C
:102D500044454255473A006F6B00436F6F6C696E94
:102D6000672E2E2E0048656174696E672E2E2E0028
:102D700045202553000A53746174733A2046696CE8
:102D8000616D656E7420757365643A20002C204C6B
:102D90006F6E67657374206A6F623A2000546F74B7
:102DA000616C2074696D653A200053746174733AE4
:102DB00020002C204661696C65643A20002C204676
:102DC000696E69736865643A20005072696E747345
:102DD0003A200053746174733A200050726F746526
:102DE000637465642050696E0A005072696E7420C5
:102DF00074696D653A20004E6F204D6F76652E0028
:102E0000436C69636B20746F20526573756D652E1A
:102E10002E2E004D65736820706F696E742063619B
:102E20006E6E6F74206265207265736F6C76656478
:102E30000A00205A3A200020593A200042656420B6
:102E4000583A2000536C6565702E2E2E0047322FA5
:102E500047332062616420706172616D65746572D0
:102E6000730A0050726F62696E67204661696C6513
:102E7000640A0050726F62696E67204661696C6512
:102E80006400205A3A200020593A2000426564200C
:102E9000583A2000486F6D652025732573257320EF
:102EA000466972737400220A00556E6B6E6F776EFE
:102EB00020636F6D6D616E643A2022002045002012
:102EC0005A00205900204D393220580020746F6F6D
:102ED000206C6F6E6720657874727573696F6E20F1
:102EE00070726576656E7465640A0020636F6C6449
:102EF00020657874727573696F6E2070726576657F
:102F00006E7465640A0004FA11241FBECFEFD1E28B
:102F1000DEBFCDBF00E00CBF13E0A0E0B2E0E0EB0D
:102F2000F3E102E00BBF02C007900D92A834B10795
:102F3000D9F720E1A8E4B3E001C01D92AC3CB20790
:102F4000E1F717E1C4E8D7E100E006C021970109E5
:102F5000802FFE010F948409C338D10780E0080751
:102F6000A9F70E940EF50D94D6090C9400008F92DB
:102F70009F92AF92BF92CF92DF92EF92FF92CF9348
:102F8000FC01C080D180E280F38020E030E0A90124
:102F9000C701B6010E94FCFF87FF93C0C701B601BD
:102FA000905820E030E048EC52E40F94610020E0BB
:102FB00030E040EA50E40F94840620E030E040E244
:102FC00051E40F9460070F94C8076B017C0180E205
:102FD0008093F20760E2F0E1CF16F7E2DF06E1044A
:102FE000F1048CF0C701B60120E137E240E050E087
:102FF0000F944806CA01B9012AE030E040E050E0F1
:103000000F944806605D6093F30760E288EEC8168F
:1030100083E0D806E104F1048CF0C701B60128EE84
:1030200033E040E050E00F944806CA01B9012AE0BD
:1030300030E040E050E00F944806605D6093F40794
:1030400060E2E4E6CE16D104E104F1048CF0C7019D
:10305000B60124E630E040E050E00F944806CA0193
:10306000B9012AE030E040E050E00F944806605D8E
:103070006093F5078AE0882E912CA12CB12CC70112
:10308000B601A50194010F944806C62FCA01B901E3
:10309000A50194010F944806605D6093F6078EE2E7
:1030A0008093F707C05DC093F80782EF97E0CF9158
:1030B000FF90EF90DF90CF90BF90AF909F908F9058
:1030C000089520E030E048EC52E4C701B6016DCF2E
:1030D0008F929F92AF92BF92CF92DF92EF92FF9228
:1030E000CF93FC01C080D180E280F38020E030E00B
:1030F0004AE754E4C701B6010F9461004B015C013B
:1031000020E030E0A901C701B6010E94FCFF20E0E9
:1031100030E040EA50E487FF04C020E030E040EABD
:1031200050ECC501B4010F94840620E030E040E289
:1031300051E40F9460070F94C8076B017C018BE288
:10314000F7FE09C0F094E094D094C094C11CD11C47
:10315000E11CF11C8DE28093F207C701B60120E16A
:1031600037E240E050E00F9448068AE0882E912C28
:10317000A12CB12CCA01B901A50194010F944806F4
:10318000605D6093F307C701B60128EE33E040E0CD
:1031900050E00F944806CA01B901A50194010F94AB
:1031A0004806605D6093F407C701B60124E630E08D
:1031B00040E050E00F944806CA01B901A50194010E
:1031C0000F944806605D6093F5078EE28093F607E2
:1031D000C701B601A50194010F944806C62FCA0184
:1031E000B901A50194010F944806605D6093F7074B
:1031F000C05DC093F80782EF97E0CF91FF90EF900A
:10320000DF90CF90BF90AF909F908F900895CF9216
:10321000DF92EF92FF92FC01C080D180E280F380C8
:1032200020E030E0A901C701B6010E94FCFF87FF42
:1032300069C0C701B601905820E030E040E251E497
:103240000F94610020E030E040EA50E40F948406DF
:1032500020E030E040E251E40F9460070F94C8078B
:10326000FB01E03187E2F80708F453C0CF0160E1C9
:1032700077E20F945D0980E3860F8093F407E83EC0
:1032800083E0F80708F447C0CF0168EE73E00F94BD
:103290005D09CB016AE070E00F945D09805D809369
:1032A000F50780E2E436F10558F0CF0164E670E0FE
:1032B0000F945D09CB016AE070E00F945D09805DB9
:1032C0008093F60780E2EA30F10558F02AE030E01A
:1032D000CF01B9010F945D09CB01B9010F945D09CC
:1032E000805D8093F707CF016AE070E00F945D097D
:1032F000805D8093F80784EF97E0FF90EF90DF9078
:10330000CF90089520E030E040E251E4C701B601DB
:1033100097CF80E2B2CF80E2C2CF8F929F92AF92DE
:10332000BF92CF92DF92EF92FF92FC01C080D180DA
:10333000E280F38020E030E048EC52E4C701B601BF
:103340000F9461004B015C0120E030E0A901C7014E
:10335000B6010E94FCFF20E030E040EA50E487FF25
:1033600004C020E030E040EA50ECC501B4010F9405
:10337000840620E030E040E251E40F9460070F94AF
:10338000C8079B018BE237FF05C022273327261B86
:10339000370B8DE28093F307C90168EE73E00F9459
:1033A0007109CB01EAE0F0E0BF010F947109805D83
:1033B0008093F407C90164E670E00F947109CB01B2
:1033C000BF010F947109805D8093F507C901BF01AA
:1033D0000F947109282FCB01BF010F947109805DF3
:1033E0008093F6078EE28093F707205D2093F8071D
:1033F00083EF97E0FF90EF90DF90CF90BF90AF907A
:103400009F908F9008958F929F92AF92BF92CF928C
:10341000DF92EF92FF92CF93FC01C080D180E280D7
:10342000F38020E030E04AE754E4C701B6010F948E
:1034300061004B015C0120E030E040E251ECC7014B
:10344000B6010E94FCFF181654F420E030E048EC6E
:1034500052E4C701B6010F94AA0887FD86C020E098
:1034600030E0A901C701B6010E94FCFF87FF6EC0D2
:1034700060E070E080EA90ECA50194010F9484066E
:1034800020E030E040E251E40F9460070F94C80759
:103490006B017C01F7FC5FC020E137E240E050E0C7
:1034A0000F944806CA01B9012AE030E040E050E03C
:1034B0000F944806605D6093F307C701B60128EEDC
:1034C00033E040E050E00F9448069AE0892E912CBA
:1034D000A12CB12CCA01B901A50194010F94480691
:1034E000605D6093F407C701B60124E630E040E078
:1034F00050E00F944806CA01B901A50194010F9448
:103500004806605D6093F5078EE28093F607C70179
:10351000B601A50194010F944806C62FCA01B9014E
:10352000A50194010F944806605D6093F707C05DA4
:10353000C093F80783EF97E0CF91FF90EF90DF9073
:10354000CF90BF90AF909F908F90089560E070E013
:1035500080EA90E491CFF094E094D094C094C11CA0
:10356000D11CE11CF11C6DE2A6CF20E030E0A901E6
:10357000C701B6010E94FCFF87FF6AC060E070E0EF
:1035800080EA90ECA50194010F94840620E030E0DD
:1035900040E251E40F9460070F94C8074B015C01AF
:1035A00020E030E0A901C701B6010F94AA0887FD09
:1035B0000BC020E030E040E251E4C701B6010E94B8
:1035C000FCFF60E287FD13C0B7FC47C0C501B40132
:1035D00028EE33E040E050E00F944806CA01B901FC
:1035E0002AE030E040E050E00F944806605D6093D0
:1035F000F407C501B40124E630E040E050E00F9448
:1036000048068AE0C82ED12CE12CF12CCA01B90160
:10361000A70196010F944806605D6093F5078EE25E
:103620008093F607C501B401A70196010F944806DF
:10363000C62FCA01B901A70196010F944806605D23
:103640006093F707C05DC093F80784EF97E074CFED
:1036500060E070E080EA90E495CFB094A0949094FC
:103660008094811C911CA11CB11C6DE2C0CF9C01F7
:1036700097FF26C0EE27FF27E81BF90B2D398FEFA8
:1036800038070CF05DC08DE28093F507CF0164E64A
:1036900070E00F947109CB012AE030E0B9010F947A
:1036A0007109805D8093F607CF01B9010F9471090C
:1036B000CB01B9010F947109805D8093F7072AC08F
:1036C000283E83E03807B4F1C90168EE73E00F9437
:1036D0007109CB01EAE0F0E0BF010F947109805D50
:1036E0008093F507C90164E670E00F947109CB017E
:1036F000BF010F947109805D8093F607C901BF0176
:103700000F947109CB01BF010F947109805D809303
:10371000F707F901CF016AE070E00F947109805D4D
:103720008093F80785EF97E008958DE237FDC5CFC8
:1037300080E2C3CFF90180E2243631050CF0A4CF3A
:1037400080E28093F5078093F607EA30F1056CF389
:103750008DE237FF80E28093F607CF016AE070E0E8
:103760000F947109605D6093F707D4CF9C0197FDBA
:103770002DC080E2243631055CF0C90164E670E0BA
:103780000F947109CB016AE070E00F947109805DBC
:103790008093F60780E22A3031055CF0EAE0F0E041
:1037A000C901BF010F947109CB01BF010F947109C9
:1037B000805D8093F707C9016AE070E00F9471099A
:1037C000805D8093F80786EF97E008953195219505
:1037D00031098DE2DDCF24E6829FC001112481589A
:1037E0009F4F6FEF70E00F947109262F81E36436CD
:1037F00009F080E28093F50790E22A3040F03AE049
:10380000822F632F0F9451090F945109905D90936B
:10381000F607822F6AE00F945109905D9093F707A5
:1038200085E28093F80785EF97E00895FC01A08179
:10383000B1811C92A281B3818C918F5F8C930280A5
:10384000F381E02D90818CE0989F800D1124EAE6B1
:10385000FFE013AE84AF089560913A0270913B028D
:10386000072E000C880B990B0F9402002AE037ED0D
:1038700043E25CE30F946100209166083091670891
:1038800040916808509169080F9461006093660246
:103890007093670280936802909369020895809103
:1038A000090580937E0908958091090580937E091A
:1038B00008958091090580937D09089580910905F7
:1038C00080937D090895CF93DF9300D01F92CDB7E9
:1038D000DEB784EF91E0A0E0B0E089839A83AB8308
:1038E000BC83BE016F5F7F4F80EA0E9450630F90E0
:1038F0000F900F900F90DF91CF910895CF93DF93AA
:1039000000D01F92CDB7DEB784EF91E0A0E0B0E029
:1039100089839A83AB83BC83BE016F5F7F4F8CE347
:103920000E9450630F900F900F900F90DF91CF91F6
:103930000895CF93DF9300D01F92CDB7DEB784EF09
:1039400091E0A0E0B0E089839A83AB83BC83BE01A1
:103950006F5F7F4F88E70E9450630F900F900F902A
:103960000F90DF91CF910895CF93DF9300D01F92F6
:10397000CDB7DEB78EEE92E0A0E0B0E089839A8307
:10398000AB83BC83BE016F5F7F4F8AE00E945063B0
:103990000F900F900F900F90DF91CF910895CF93DC
:1039A000DF9300D01F92CDB7DEB78EEE92E0A0E09D
:1039B000B0E089839A83AB83BC83BE016F5F7F4F86
:1039C0008AE50E9450630F900F900F900F90DF9147
:1039D000CF910895FC018491089580913A0F9091C0
:1039E0003B0F891B8F7039F481E09091B9089130B9
:1039F00019F080E0089581E00895CF93DF93EC0102
:103A0000CB01BA010F94020020E030E048EC51E411
:103A10000F9461000F94CD07688379838A839B8319
:103A2000DF91CF910895CF93DF9300D01F92CDB750
:103A3000DEB70F9402002AE037ED43E25CE30F9417
:103A4000610069837A838B839C83CE01019640DB7E
:103A50000F900F900F900F90DF91CF910895CF931B
:103A6000DF93EC01CB01BA010F9402002AE037ED9D
:103A700043E25CE30F946100688379838A839B83CC
:103A8000DF91CF910895CF93DF93EC01CB01BA0181
:103A90000F9402002AE037ED43E25CE30F946100EB
:103AA000688379838A839B83DF91CF910895CF9335
:103AB000DF93EC01CB01BA010F9402002DEC3CEC3A
:103AC0004CEC5DE30F946100688379838A839B8368
:103AD000DF91CF910895CF93DF9300D01F92CDB7A0
:103AE000DEB70F9402002DEC3CEC4CEC5DE30F9440
:103AF000610069837A838B839C83CE01019637DAD8
:103B00000F900F900F900F90DF91CF910895CF936A
:103B1000DF93EC01CB01BA010F94020020E030E00A
:103B200048EC51E40F946100688379838A839B8316
:103B3000DF91CF910895CF93DF9300D01F92CDB73F
:103B4000DEB70F94020020E030E048EC51E40F941F
:103B5000610069837A838B839C83CE01019657DB56
:103B60000F900F900F900F90DF91CF910895CF930A
:103B7000DF9300D01F92CDB7DEB70F9402006983A8
:103B80007A838B839C83CE01019641DB0F900F904B
:103B90000F900F90DF91CF910895CF93DF93EC01B9
:103BA000CB01BA010F940200688379838A839B83D7
:103BB000DF91CF910895CF93DF93EC01CB01BA0150
:103BC0000F940200688379838A839B83DF91CF916E
:103BD0000895CF93DF93EC01CB01BA010F9402005B
:103BE0002FE632E143E85AE30F946100688379835A
:103BF0008A839B83DF91CF910895CF93DF9300D089
:103C00001F92CDB7DEB70F9402002AE037ED43E2F2
:103C10005CE30F94610069837A838B839C83CE017C
:103C20000196F1DB0F900F900F900F90DF91CF91E5
:103C300008950F9402000F94C807CB0197CDCF933E
:103C4000DF93EC01CB01BA010F9402000F94C80777
:103C500079836883DF91CF9108950F94020023E365
:103C600033E343E250E40F9461000F94CD07862FB5
:103C7000B2CDCF93DF93EC01CB01BA010F940200D8
:103C800023E333E343E250E40F9461000F94CD0744
:103C90006883DF91CF910895CF93DF9300D01F9277
:103CA000CDB7DEB70F94CD070F94000069837A83F8
:103CB0008B839C83CE010196AADA0F900F900F9010
:103CC0000F90DF91CF9108950F94020020E030E033
:103CD00048EC51E40F946100DFCFCF92DF92EF9276
:103CE000FF926B017C0120E030E0A9010E94FCFF03
:103CF00020E030E040E05FE387FF04C020E030E0F8
:103D000040E05FEBC701B6010F9484060F94C8072B
:103D1000CB01FF90EF90DF90CF9028CD0F94020061
:103D2000DCCFFC01808108959091050194709093FF
:103D3000030187FD68C0A398909105019095947048
:103D4000909303019091050194709093030186FD77
:103D500066C0A3989091050190959470909303018B
:103D60009091050194709093030185FD56C0A3982E
:103D700090910501909594709093030190910501A5
:103D800094709093030184FD46C0A398909105011F
:103D90009095947090930301909105019470909385
:103DA000030183FD36C0A39890910501909594700E
:103DB000909303019091050194709093030182FD0B
:103DC00026C0A3989091050190959470909303015B
:103DD0009091050194709093030181FD16C0A39802
:103DE0008091050180958470809303018091050185
:103DF000847080930301A39880910501809584705D
:103E0000809303010895A39A97CFA39AE9CFA39A29
:103E1000D9CFA39AC9CFA39AB9CFA39AA9CFA39A6E
:103E200099CF089590E080E00895282F90910F0990
:103E3000833021F495FD0FC094FD0FC0892F90E0D1
:103E4000B0E0A0E004C0B695A795979587952A9510
:103E5000D2F78170089581E0089580E00895CF92AF
:103E6000DF92EF92FF92CF93DF93EC016A017B0127
:103E700027E137EB41ED58EBCB01B6010F94AA08CF
:103E800087FD23C027E030E04AE753E4C701B601CD
:103E90000E94FCFF1816CCF0C880D980EA80FB8015
:103EA00027E137EB41ED58EBC701B6010F94AA08A3
:103EB00087FD0BC0C1E023E030E046E953E4C701D1
:103EC000B6010E94FCFF18160CF4C0E08C2FDF91A5
:103ED000CF91FF90EF90DF90CF9008958F929F92B7
:103EE000AF92BF92CF92DF92EF92FF92C090C10843
:103EF000D090C208E090C308F090C40820E030E001
:103F0000A901C701B6010E94FCFF8823E1F1A701C6
:103F1000960160E070E080E89FE30F9460076B011A
:103F20007C018090C5089090C608A090C708B0900A
:103F3000C80820E030E0A901C501B4010E94FCFFDF
:103F4000882329F1A501940160E070E080E89FE3F7
:103F50000F946007C092EF03D092F003E092F10358
:103F6000F092F2036093F3037093F4038093F503EC
:103F70009093F603FF90EF90DF90CF90BF90AF90BB
:103F80009F908F900895C12CD12C7601CACF60E00C
:103F900070E0CB01DFCF2F923F924F925F926F92F2
:103FA0007F928F929F92AF92BF92CF92DF92EF92C9
:103FB000FF920F931F93CF93DF93CDB7DEB72E976A
:103FC0000FB6F894DEBF0FBECDBFE82ED62E042F5D
:103FD000122F282F30E03C872B87462F50E05A873E
:103FE000498765E0F62EF29EC001F39E900D1124E4
:103FF0009E878D87FA01E80FF91FEE0FFF1FEE0F66
:10400000FF1FE250F84F60817181828193819B0193
:10401000AC010F943209882309F434C1E00E612FFA
:104020006D0DFE9CF0011124A985BA85AE0FBF1F4E
:10403000AA0FBB1FAA0FBB1FA250B84FAC9011967E
:10404000BC9011971296CC9012971396DC90E00ECC
:10405000FE9CA0011124A985BA85A40FB51FAA0F43
:10406000BB1FAA0FBB1FA250B84FEC901196FC903B
:10407000119712960C91129713969C90862F90E0B0
:10408000AD85BE85A80FB91FAA0FBB1FAA0FBB1F06
:10409000A250B84F8C9011967C90119712966C900C
:1040A000129713965C90610F70E0AD85BE85A60FE8
:1040B000B71FAA0FBB1FAA0FBB1FA250B84F4C902F
:1040C00011963C90119712961C91129713962C9072
:1040D000E80FF91FEE0FFF1FEE0FFF1FE250F84F22
:1040E000B081B98321812A8332813B8383818C8390
:1040F000FA01E60FF71FEE0FFF1FEE0FFF1FE25052
:10410000F84F90819D83A181AE83B281BF832381CB
:1041100028879701402F592DB701802F992D0F9493
:104120003209882321F0E12CF12C00E0912C95013B
:10413000A601B501C6010F943209882319F0570171
:10414000C02ED92C242D332D412F522D642D732DAB
:10415000812F922D0F943209882321F0412C312C8C
:1041600010E0212C282D372D462D552D682D772D2B
:10417000862D952D0F943209882321F0842C732CE1
:10418000612E522C2D813E814F8158856D817E811B
:104190008F8198850F943209882321F01D821E8219
:1041A0001F82188629813A814B815C8169817A81DD
:1041B0008B819C810F943209882341F03D813983A2
:1041C0004E814A835F815B8388858C8385E0EB85A4
:1041D000FC858E9FD0018F9FB00D112429853A85D3
:1041E000A20FB31FAA0FBB1FAA0FBB1FA250B84F2D
:1041F000BA87A9879501A601B501C6010F94840667
:104200009701402F592D0F9483066B017C01282DB7
:10421000372D462D552D682D772D862D952D0F94F4
:104220008406242D332D412F522D0F9483069B019C
:10423000AC01C701B6010F9484066B017C01298192
:104240003A814B815C8169817A818B819C810F9459
:1042500084062D813E814F8158850F9483069B01F2
:10426000AC01C701B6010F94840620E030E040E4C1
:1042700050E40F946007A985BA856D937D938D9363
:104280009C9313972E960FB6F894DEBF0FBECDBF4A
:10429000DF91CF911F910F91FF90EF90DF90CF9022
:1042A000BF90AF909F908F907F906F905F904F9056
:1042B0003F902F9008950C94A8A40C94A8A40C945B
:1042C000A8A40C94A8A40C945AA40C945AA40C94DA
:1042D0005AA40C945AA4CF92DF92EF92FF92CF93FC
:1042E000C82F0E94AF906B017C0124EA30E74DE7B4
:1042F0005FE3609105057091060580910705909137
:1043000008050E94FCFF87FD18C08AEF90E0A0E03E
:10431000B0E08C0D9D1DAE1DBF1D809326059093B2
:104320002705A0932805B0932905C0930E02CF91CD
:10433000FF90EF90DF90CF90089580E090E0DC0157
:10434000E8CF8F929F92AF92BF92EF92FF920F931E
:104350001F93CF93DF93EC018B01E42EF22E80911B
:10436000680F9091690F8C179D07C9F129E2C33836
:10437000D20709F03FC080569A4371F40E94AF9073
:104380006E517B4F8F4F9F4F6093F4047093F504F1
:104390008093F6049093F704D093690FC093680F4D
:1043A00030E020E00093E1071093E2072093E30759
:1043B0003093E407E092D907F092DA07C056DA4367
:1043C00021F410922A051092F30482E080936C028B
:1043D00081E08093F1071092310510920405DF917E
:1043E000CF911F910F91FF90EF90BF90AF909F9052
:1043F0008F9008952AE3C036D20771F68358994208
:1044000019F0C0E6DAE3C8CF0E94AF908090F404C0
:104410009090F504A090F604B090F704681979091B
:104420008A099B0997FFEDCFC0912809D6DA882326
:1044300041F3C770C73029F7CFE1D2E2ADCF20E01A
:1044400040E070E060E08EEC96E37BDF81E08093FB
:104450002A051092650810926408089521E02093BF
:104460002A056093050570930605809307059093D0
:10447000080520E040E070E060E08091D307909173
:10448000D4075FCF6DEC7CEC8CEC9CE3E7CF6DEC5C
:104490007CEC8CEC9DE3E2CF60E070E080E89FE391
:1044A000DDCF60E070E080E291E4D8CFCF93DF937E
:1044B000CDB7DEB720E2488559856F818E810E9495
:1044C00002D9DF91CF9108950C9407C50C9407C5CC
:1044D00069ED77E383E00C9464F263E879E382E0CA
:1044E0000C9464F267E879E381E00C9464F26BE881
:1044F00079E380E00C9464F2CF93DF9300D01F92B5
:10450000CDB7DEB70F9402002FE632E143E85AE35D
:104510000F94610069837A838B839C83CE0101961B
:104520000E9473D90F900F900F900F90DF91CF9151
:104530000895AF92BF92CF92DF92EF92FF920F93C6
:104540001F93CF93DF936B01E9014A3009F4ADC0AB
:10455000453109F062C0DB011296ED91FC91F280C9
:10456000C681D781A49A88E28A950000E9F7BF2C1A
:10457000B29420EFB22230E1A32EAF0C48E2E42E39
:1045800088EFD2DB8E2D8A950000E9F7BFE1BF15D9
:1045900008F47AC08F2D80778068C6DB8B2DC4DB52
:1045A0008E2D8A950000E9F780E8BEDB80E0BCDB59
:1045B0008E2D8A950000E9F78AEFB6DB8E2D8A955D
:1045C0000000E9F78E01005F1F4F8881807FACDB20
:1045D00089918295807FA8DBC017D107B1F78E2D16
:1045E0008A950000E9F7F394E0E1BE0EFA10C8CF17
:1045F000A498D6011296CD91DC91CE010E946491CF
:10460000811111C2DF91CF911F910F91FF90EF9017
:10461000DF90CF90BF90AF900895FB01028113818E
:10462000423309F4BBC108F4BFC1463409F4ACC13C
:10463000473409F4AFC14B3329F589812B81D80167
:1046400012966C91129713964C91213009F402C284
:10465000233009F0CCC138EF380F582F91E04317C1
:1046600008F490E041E0531708F040E031E05617BD
:1046700008F430E0592F542B352309F0E0C194237E
:1046800009F0DDC181E0BECF80EE8F0D8068807FB4
:104690004BDB8F2D8295807F47DB8E2D8A95000026
:1046A000E9F780E841DB80E882CF9C9AA4989B9A46
:1046B000A398809104018460809304018091050196
:1046C0008095847080930301A49A88E28A95000003
:1046D000E9F788E790E0CEE9DFE0FE013197F1F7F6
:1046E0000197D9F788EF20DB18E2812F8A95000027
:1046F000E9F780E219DB80E017DB812F8A95000063
:10470000E9F780E011DB80E80FDB812F8A9500005C
:10471000E9F780E009DB80E107DB812F8A95000063
:10472000E9F7CE010197F1F7CE010197F1F7CE013C
:104730000197F1F7CE010197F1F7CE010197F1F75B
:10474000CE010197F1F7CE010197F1F7CE01019764
:10475000F1F7CE010197F1F7CE010197F1F7CE0104
:104760000197F1F7CE010197F1F7CE010197F1F72B
:10477000CE010197F1F72197F1F780E2D5DA80E4D5
:10478000D3DA812F8A950000E9F780E2CDDA80E65E
:10479000CBDA1A950000E9F710E0D0E0C8E28D2FDF
:1047A00080778068C1DA812FBFDA8C2F8A9500006C
:1047B000E9F780E8B9DA80E0B7DA8C2F8A95000053
:1047C000E9F78AEFB1DA8C2F8A950000E9F790E2D9
:1047D00080910501847080930301A3988091050165
:1047E000809584708093030180910501847080938B
:1047F0000301A39880910501809584708093030143
:1048000080910501847080930301A3988091050134
:10481000809584708093030180910501847080935A
:104820000301A39880910501809584708093030112
:1048300080910501847080930301A3988091050104
:10484000809584708093030180910501847080932A
:104850000301A398809105018095847080930301E2
:1048600080910501847080930301A39880910501D4
:1048700080958470809303018091050184708093FA
:104880000301A398809105018095847080930301B2
:1048900080910501847080930301A39880910501A4
:1048A00080958470809303018091050184708093CA
:1048B0000301A39880910501809584708093030182
:1048C00080910501847080930301A3988091050174
:1048D000809584708093030180910501847080939A
:1048E0000301A39880910501809584708093030152
:1048F00080910501847080930301A3988091050144
:104900008095847080930301809105018470809369
:104910000301A39880910501809584708093030121
:1049200080910501847080930301A3988091050113
:104930008095847080930301809105018470809339
:104940000301A398809105018095847080930301F1
:104950008C2F8A950000E9F7915009F039CF88EF44
:10496000E3D98C2F8A950000E9F7DF5F105FD03222
:1049700009F015CF80E0D8D980ECD6D9CA950000CF
:10498000E9F7A49881E03ECED80115968C918883F2
:1049900081E038CEF80181818883FACFB901C8015E
:1049A0000E944F9181E02ECE443171F0473109F0E1
:1049B00069CE1882F80182818983858181508A833A
:1049C00083818B8381E01ECED80115964C9115977B
:1049D00050E0440F551F70E060E016968D919C9159
:1049E0000F948C09C8010E947A9181E00BCE481780
:1049F00008F448CE861708F445CEFA80E12CD12C75
:104A0000243070F41DC0BE01C8010E944F918981FD
:104A100098819D0D98838E0D8983FF0C09F432CE09
:104A2000F7FEF6CFF0CF4D8150E0440F551F70E0F8
:104A300060E08E819F810F948C0981E0E3CDFA8044
:104A400030E0F901E957FD4FD0802D573D4FF90176
:104A5000E080E6CF58E0580F382F00CEDF92EF927B
:104A6000FF920F931F93CF93DF93EC01D62E1CADD3
:104A70000BAD7C0184E0E80EF11CE98DFA8DC701D5
:104A80001995412F480F2D2D602FC7010E94559376
:104A90009BAD890F8BAF81E090E0DF91CF911F91AB
:104AA0000F91FF90EF90DF9008958F929F92AF92B9
:104AB000BF92CF92DF92EF92FF920F931F93CF930B
:104AC000DF93EC018B017A018A859B858617970716
:104AD00031F0888199810E9414921B870A8788850A
:104AE0009985019641F50C81DA808E81D80EA880D7
:104AF000B980D5015596ED91FC91C5011995080F26
:104B000010E0F70121917F0121114FC08E819F811B
:104B1000810F911D9F838E8390E080E0DF91CF9184
:104B20001F910F91FF90EF90DF90CF90BF90AF90CB
:104B30009F908F900895CE80DF80F701008110E074
:104B4000002321F1A880B980602FC5010E946C92DA
:104B5000D50151961C9111954701BFEF8B1A9B0A05
:104B6000F40181914F01882351F0D50150969C9119
:104B7000190F082F682FC5010E946C92F1CF0032E7
:104B800081F0F50183899189890F180FC10ED11C1D
:104B9000288539852C153D0508F0A5CF81E090E0EA
:104BA000BDCFD50150968C91F0CF402F6D2DC50112
:104BB0000E945593D80E180FA4CFEF92FF920F9337
:104BC0001F93CF93DF93CDB7DEB72C970FB6F89432
:104BD000DEBF0FBECDBF1091A50F0091A60F209193
:104BE0000D0521111BC04AE95BE0602F812F0E9457
:104BF0005AC690E080E0180F1093A50F0093A60FFF
:104C000099272C960FB6F894DEBF0FBECDBFDF916B
:104C1000CF911F910F91FF90EF900895E090720F48
:104C2000F090730F2EE63FE03A832983212F30E086
:104C30003C832B83202F30E03E832D8318861F82F8
:104C40007A8769871C861B869E012F5F3F4F4AEE3D
:104C50005CE1BC01C7010E9420C6B7018EE69FE05F
:104C60000E9414928F819885C6CFEF92FF920F9386
:104C70001F93CF93DF93CDB7DEB72C970FB6F89481
:104C8000DEBF0FBECDBF1091A50F0091A60F2091E2
:104C90000D0521111BC04AE75BE0602F812F0E94A8
:104CA0005AC690E080E0180F1093A50F0093A60F4E
:104CB00099272C960FB6F894DEBF0FBECDBFDF91BB
:104CC000CF911F910F91FF90EF900895E090720F98
:104CD000F090730F2EE63FE03A832983212F30E0D6
:104CE0003C832B83202F30E03E832D8318861F8248
:104CF0007A8769871C861B869E012F5F3F4F41E99B
:104D00005EE1BC01C7010E9420C6B7018EE69FE0AC
:104D10000E9414928F819885C6CFCF92DF92EF9236
:104D2000FF920F931F93CF93DF936B017A01EC01F6
:104D3000C55BDC4F28813CE0389F8001399F100D16
:104D4000112427FF24C0FB011182108288818F5F0C
:104D5000888388819801280F311D87FD3A95C90104
:104D60002091330FF6012817190629F024F08881C5
:104D70008C300CF43CC080819181049680349C4935
:104D800008F475C0F60180819181049672C0888113
:104D90009801280F311D87FD3A95C9012091330FE5
:104DA0002817190699F294F28881A801480F511D1D
:104DB00087FD5A95FA01EE0FFF1FE40FF51FE95327
:104DC000F14F808187FFC2CF8881F801E80FF11D84
:104DD00087FDFA95CF01EE0FFF1FE80FF91FE9538A
:104DE000F14F808160E08F770E944B8FAFCF808141
:104DF00091812881A801420F511D27FD5A959A01E2
:104E0000FA01EE0FFF1FE20FF31FE953F14F21816B
:104E10003281820F931FF7019183808388819801EB
:104E2000280F311D87FD3A95F901EE0FFF1FE20FA4
:104E3000F31FE953F14F808187FF20C08881080F5D
:104E4000111D87FD1A95F801EE0FFF1FE00FF11FEE
:104E5000E953F14F808161E08F77DF91CF911F910E
:104E60000F91FF90EF90DF90CF900C944B8F80E4E8
:104E70009CE9F701918380838FEF8883DF91CF9145
:104E80001F910F91FF90EF90DF90CF9008950F93B7
:104E90001F938091B908813019F50E94AF9000915D
:104EA0004B0510914C0520914D0530914E05601B2E
:104EB000710B820B930B28EE33E040E050E00F942F
:104EC000260660914F057091500580915105909193
:104ED0005205620F731F841F951F1F910F91089534
:104EE0006091B5087091B6088091B7089091B808A4
:104EF000D6CF1092B90810924B0510924C05109223
:104F00004D0510924E051092B5081092B6081092F9
:104F1000B7081092B80810924F05109250051092E1
:104F200051051092520508950F931F930E94AF9060
:104F30000091500F1091510F2091520F3091530F4B
:104F40000115110521053105D9F52091560F2223B0
:104F5000A1F1E091540F21502093560F21E02E0F24
:104F60002093540F3091570F231302C01092540F07
:104F700024E0E29FF0011124E85AF04F00811181F2
:104F80002281338100934C0F10934D0F20934E0FCD
:104F900030934F0F600F711F811D911D6093500F53
:104FA0007093510F8093520F9093530F80914E0F37
:104FB00090914F0F892B09F0769A1F910F910895C8
:104FC000601B710B820B930B97FDF7CF76981092B5
:104FD000500F1092510F1092520F1092530FEDCFAD
:104FE0000F931F93CF93DF938C01EB019091560F9A
:104FF0002091570F921304C097DF0E948D97F6CF30
:105000008091550F34E0839FF0011124E85AF04F4E
:1050100011830083D383C2839F5F9093560F8F5F6A
:10502000281739F08093550FDF91CF911F910F9181
:1050300008951092550FF8CF63E972E084E690E08E
:10504000CFDF6AEB72E084E690E0CACF8111F4CF43
:1050500068EB71E084E190E0C3CF0E949BB2F6CF91
:105060000E943EC4F3CFCF93DF93FC010190002058
:10507000E9F73197EF01C81BD90BCB32D1052CF0E2
:105080002291207C2038E1F3F5CFDD27AE01BC0171
:1050900080EE98E00F94BC09C052D74F1882DF9180
:1050A000CF9108950F931F93CF93DF938C016F3FA0
:1050B00019F41092410960E020914109862F062ED3
:1050C000000C990B2817190609F0F4F460934109B4
:1050D000C8010E944BFF800F911FEC01C01BD10B38
:1050E000CB32D1053CF00197FC012491207C203883
:1050F000D1F3F3CFDD27AE01B80180EE98E00E9436
:105100006CFFC052D74F1882DF91CF911F910F9142
:1051100008958091B908823031F0813039F08FEBF9
:1051200090E16FEFBFCF85E692E0FBCF81ED90E19C
:10513000F8CFCF93DF93CDB7DEB78E819091410941
:10514000891768F0809341099E01275F3F4F4F8187
:1051500058856AE270E080EE98E00E94C4FFDF911B
:10516000CF9108950F931F930E94AF9000919B0ED3
:1051700010919C0E20919D0E30919E0E601B710B24
:10518000820B930B97FD0FC08091060182FB88274D
:1051900080F991E089279091060191FF8260629BDE
:1051A000846080939F0E80919F0E817090919F0EDE
:1051B00091FD826090913905981771F0813031F13D
:1051C00070F08230A1F08330B9F0909137059111E1
:1051D00010923805809339051F910F9108959130F1
:1051E00079F0923091F7909138059F5F0CC0992328
:1051F00039F09330C1F3E9CF9130A9F3923029F718
:1052000090913805915090933805DFCF992359F349
:105210009330D9F6F5CFCF93DF9381E080930D05DE
:10522000E6EAFEE08CEE9FE0918380831382128297
:10523000E7E0F1E080818B7F8083C8E0D1E0888166
:1052400080958470A6E0B1E08C9380818D7F80830F
:105250008881809582708C936A98729A83DF10920D
:105260003805DF91CF910895E091F304E63010F511
:1052700081E08E0F8093F3044091E1075091E207A3
:105280006091E3077091E4079091D9078091DA0764
:1052900028E0E29FF0011124ED53FB4F2091680FAD
:1052A0003091690F318320834283538364837583F4
:1052B000968387830895CF93DF93EC01D5DF20E0B9
:1052C00040E070E060E0CE01DF91CF913AC820E08D
:1052D00040E070E060E080E69AE333C8E091F304D8
:1052E000EE2381F0E150E093F30488E0E89FF001C1
:1052F0001124ED53FB4F62817381278146818081A8
:1053000091811FC8E4CFEF92FF920F931F93CF9329
:10531000DF930E9491DCC091D90785E0F82EFC0E46
:10532000EC2EE19413E01C1B02E00C1BD1E0DC1B13
:10533000C11113C08091DB07882391F180916C0229
:10534000882359F081E09091DB07911180E024E0FF
:1053500042EC5EE06E2D0E9402D98091B908813046
:1053600009F03EC0C13009F05DC08091DB0781309B
:1053700049F180916C02882361F081E09091DB0714
:10538000913009F080E023E04DEB5EE06D2F0E944C
:1053900002D9CF5FFC12CCCF84E08093DA070BC038
:1053A0008091CE071092CE07882341F297DF80913B
:1053B000F107882319F2DF91CF911F910F91FF9090
:1053C000EF9008958091CE071092CE07882389F23E
:1053D00088E89FE370DF8091F107882351F2EBCFDB
:1053E000C13001F58091DB07813071F080916C0252
:1053F000882379F281E09091DB07913009F080E019
:1054000023E046EB5EE0C2CF8091CE071092CE073C
:10541000882361F38BE59AE24EDF8091F1078823C0
:1054200029F3C9CFC23011F58091DB07823081F0BA
:1054300080916C02882309F4ACCF81E09091DB0766
:10544000923009F080E023E04AEA5EE0602F9FCFCF
:105450008091CE071092CE07882351F389EE91E513
:105460002ADF8091F107882319F3A5CFC33009F013
:1054700090CF8091DB07833081F080916C0288238C
:1054800009F487CF81E09091DB07933009F080E049
:1054900023E04CE95EE0612F7ACF8091CE07109235
:1054A000CE07882351F38BE691E405DF8091F10765
:1054B000882319F380CF9F92AF92BF92CF92DF9251
:1054C000EF92FF920F931F93CF93DF930E9491DC93
:1054D000C091D907CC2E85E0982E9C0E95EDA92E73
:1054E0009EE0B92ED7E0DC1B16E01C1B05E00C1B70
:1054F00084E0F82EFC1A82E0E82EEC1A81E0D82E27
:10550000DC1AC11132C08091DB078823B9F0809189
:105510006C02882361F06C2D619581E09091DB072E
:10552000911180E024E04CE25FE00E9402D9CF5F5D
:10553000C911E7CF88E08093DA070BC08091CE07CE
:105540001092CE07882319F3C9DE8091F1078823D2
:10555000F1F2DF91CF911F910F91FF90EF90DF90CB
:10556000CF90BF90AF909F900895C13009F5809182
:10557000DB07813079F080916C028823C1F281E0F1
:105580009091DB07913009F080E023E049E259E295
:105590006D2DCBCF8091CE071092CE07882359F383
:1055A00089EB9BE288DE8091F107882321F3D1CF3C
:1055B000C23009F0BEC09091DB07923071F080914B
:1055C0006C02882309F4B3CF81E0923009F080E0C7
:1055D00020E242E25FE06E2DA8CF8091CE071092CC
:1055E000CE07882361F32EE13FE0309360052093DE
:1055F0005F058091F107882311F3ABCF9091DB0712
:10560000933079F080916C02882309F490CF63E0A5
:105610006C1981E0933009F080E020E247E15FE01F
:1056200084CF8091CE071092CE07882359F321E1D1
:105630003FE03093600520935F058091F107882358
:1056400009F387CF9091DB07943071F080916C0261
:10565000882309F46CCF81E0943009F080E020E2E7
:105660004AE05FE06F2D61CF8091CE071092CE07A8
:10567000882361F324E03FE03093600520935F05C9
:105680008091F107882311F364CF9091DB07953067
:1056900071F080916C02882309F449CF81E0953044
:1056A00009F080E020E24DEF5EE0602F3ECF809178
:1056B000CE071092CE07882361F327EF3EE03093A8
:1056C000600520935F058091F107882311F341CF96
:1056D0008091DB07863081F080916C02882309F489
:1056E00026CF81E09091DB07963009F080E023E03F
:1056F0004AEE5EE0612F19CF8091CE071092CE075F
:10570000882351F382E89DE5D6DD8091F107882357
:1057100019F31FCF8091CE071092CE078823D9F0BE
:10572000B0926005A0925F058091F107882399F0FF
:1057300010CFC33009F462CFC43009F483CFC53031
:1057400009F4A3CFC63021F2C73009F0F0CE909112
:10575000DB079730F9F280916C02882309F4E7CED9
:1057600081E0973009F080E020E249ED5EE06D2FA6
:10577000DCCEDF92EF92FF920F931F93CF93DF93D4
:105780000E9491DCC091D90785E0E82EEC0ED4E0B0
:10579000DC1B13E01C1B02E00C1B81E0F82EFC1A42
:1057A000DC2ED194C1112DC08091DB078823B1F08C
:1057B00080916C02882359F081E09091DB07911170
:1057C00080E024E04EEC5EE06D2D0E9402D9CF5FB8
:1057D000EC12E8CF85E08093DA070BC08091CE070A
:1057E0001092CE07882321F379DD8091F107882379
:1057F000F9F2DF91CF911F910F91FF90EF90DF9021
:105800000895C13009F58091DB07813079F08091EE
:105810006C028823E1F281E09091DB07913009F07E
:1058200080E023E04AE559E26F2DCFCF8091CE078B
:105830001092CE07882359F387E792E23CDD8091EE
:10584000F107882321F3D5CFC23009F052C08091EF
:10585000DB07823081F080916C02882309F4B7CF96
:1058600081E09091DB07923009F080E023E043E58E
:1058700059E2602FAACF8091CE071092CE078823DD
:1058800051F382E792E217DD8091F107882319F343
:10589000B0CF8091DB07833081F080916C02882348
:1058A00009F495CF81E09091DB07933009F080E017
:1058B00023E04CE459E2612F88CF8091CE0710920B
:1058C000CE07882351F38DE692E2F5DC8091F10753
:1058D000882319F38ECF8091CE071092CE078823AC
:1058E00089F088E692E2E7DC8091F107882351F0A5
:1058F00080CFC33071F2C43009F069CF8091DB07EB
:10590000843049F380916C02882309F460CF81E0F0
:105910009091DB07943009F080E023E043E459E202
:105920006D2F53CF6F927F928F929F92AF92BF92C3
:10593000CF92DF92EF92FF920F931F93CF93DF935B
:105940000E9491DCC091D9071C2F85E0782E7C0E37
:1059500004E00C1B83E0F82EFC1A82E0E82EEC1A1F
:105960009CEDA92E9CE0B92E2CE2C22E2DE0D22E69
:1059700081E0982E9C1A6C2E619485E0882E8C1AFA
:10598000C1112FC08091DB07882389F080916C02C0
:10599000882309F444C081E09091DB07911180E0F5
:1059A00024E04DE35DE0662D0E9402D938C080916D
:1059B000CE071092CE07882349F390DC8091F1073F
:1059C000882321F3DF91CF911F910F91FF90EF90EA
:1059D000DF90CF90BF90AF909F908F907F906F900F
:1059E0000895C13009F076C08091DB07813009F459
:1059F0005FC080916C02882391F01F92DF92CF925A
:105A00009F9281E09091DB07913009F080E08F93C5
:105A10000E9456220F900F900F900F900F900E94AF
:105A2000ED1C8111CBC0D6E0C53009F0C8C0809113
:105A3000DB07853009F4A5C080916C028111B1C0EB
:105A4000D6E081E08D0F8C1315C08091DB078C1799
:105A500009F4DBC080916C02882361F06C2F611B1C
:105A600081E09091DB079C1380E023E043EF5CE052
:105A70000E9402D982E08D0F8C1313C09091DB0736
:105A80009C1709F4D2C080916C02882351F06C2FCE
:105A9000611B81E09C1380E023E041EE5CE00E940A
:105AA00002D9CF5FC7116CCFDD5FD093DA078ACF01
:105AB0008091CE071092CE07882309F49ACFB09236
:105AC0006005A0925F0503DC8091F107882309F44B
:105AD00090CF78CFC23009F0C5C08091DB0782300B
