:100000000C9425190C9456190C9456190C945619E5
:100010000C9456190C9456190C9456190C945619A4
:100020000C9456190C9456190C9456190C94561994
:100030000C9456190C9456190C9456190C94561984
:100040000C9456190C941FF30C9456190C945619D1
:100050000C9456190C9456190C94E3E30C9493DF0A
:100060000C9456190C9470790C9466790C9456196A
:100070000C9456190C9456190C9456190C94561944
:100080000C945A360C9456190C9456190C94561913
:100090000C9456190C9456190C9456190C94561924
:1000A0000C9456190C9456190C942C360C94561921
:1000B0000C9456190C9456190C9456190C94FE3540
:1000C0000C9456190C9456190C9456190C945619F4
:1000D0000C9456190C9456190C9456190C945619E4
:1000E0000C945619084AD73B3BCE016E84BCBFFD29
:1000F000C12F3D6C74319ABD56833DDA3D00C77FF8
:1001000011BED9E4BB4C3E916BAAAABE0000008090
:100110003F05A84CCDB2D44EB93836A9020C50B91F
:10012000918688083CA6AAAA2ABE000000803F004B
:100130004E414E494E495459494E46CDCCCC3D0ACC
:10014000D7233C17B7D13877CC2B329595E6241FAF
:10015000B14F0A000020410000C84200401C462068
:10016000BCBE4CCA1B0E5AAEC59D7400407A10F33B
:100170005A00A0724E18090010A5D4E80000E876D5
:1001800048170000E40B54020000CA9A3B0000002C
:10019000E1F505000080969800000040420F000045
:1001A00000A08601000000102700000000E8030006
:1001B0000000006400000000000A000000000001D0
:1001C00000000000002C76D888DC674F0823DFC1D0
:1001D000DFAE59E1B1B796E5E3E453C63AE651998B
:1001E0007696E8E6C28426EB898C9B62ED407C6FB4
:1001F000FCEFBC9C9F40F2BAA56FA5F490055A2A6B
:10020000F75C936B6CF9676DC11BFCE0E40D47FE76
:10021000F520E6B500D0ED902E030094357705006B
:1002200080841E080000204E0A000000C80C3333F2
:1002300033330F986E12831141EF8D2114893BE601
:100240005516CFFEE6DB18D1844B381BF77C1D908A
:100250001DA4BBE424203284725E228100C9F124F3
:10026000ECA1E53D27434F4D4D554E49434154497F
:100270004F4E0044525952554E004552524F525320
:1002800000494E464F004543484F004572726F7219
:100290002077726974696E6720746F2045455052EB
:1002A0004F4D210A0025301D0C282924311C0B45F7
:1002B00027232F1B164443212A193F40222B1A4182
:1002C0004203380906360308020600016275737995
:1002D0003A2070617573656420666F7220696E7074
:1002E00075740A00627573793A207061757365647C
:1002F00020666F7220757365720A00627573793AB1
:100300002070726F63657373696E670A0053544F90
:10031000505045442E20005072696E7465722073EF
:10032000746F707065642064756520746F206572E9
:10033000726F72732E20466978207468652065722A
:10034000726F7220616E6420757365204D39393982
:1003500020746F20726573746172742E2028546546
:100360006D70657261747572652069732072657352
:1003700065742E20536574206974206166746572FB
:100380002072657374617274696E67290A004E6F1A
:1003900020436865636B73756D2077697468206CA2
:1003A000696E65206E756D6265722C204C61737488
:1003B000204C696E653A2000636865636B73756DE8
:1003C000206D69736D617463682C204C61737420B7
:1003D0004C696E653A20004C696E65204E756D6201
:1003E0006572206973206E6F74204C617374204CA9
:1003F000696E65204E756D6265722B312C204C61E3
:100400007374204C696E653A20004D313130004BD9
:10041000494C4C20636175736564206279204B49B7
:100420004C4C20627574746F6E2F70696E0A004BAD
:10043000494C4C2063617573656420627920746F48
:100440006F206D75636820696E61637469766520DD
:1004500074696D65202D2063757272656E742063FA
:100460006F6D6D616E643A2000506C65617365203C
:100470005265736574005052494E544552204841AC
:100480004C5445440025533A202553004B494C4CCD
:1004900045442E20005072696E7465722068616C4C
:1004A0007465642E206B696C6C28292063616C6C08
:1004B0006564210A0053544F505045442E2000508B
:1004C00072696E7465722073746F707065642064F5
:1004D000756520746F206572726F72732E20466985
:1004E0007820746865206572726F7220616E642076
:1004F000757365204D39393920746F2072657374B6
:100500006172742E202854656D7065726174757205
:10051000652069732072657365742E20536574209D
:100520006974206166746572207265737461727497
:10053000696E67290A006563686F3A004572726FD9
:10054000723A0042696C696E656172204C6576652D
:100550006C696E6720477269643A0A0053544F50C1
:100560002063616C6C6564206265636175736520EE
:100570006F6620424C546F756368206572726F72AB
:10058000202D2072657374617274207769746820FD
:100590004D3939390A0053544F502063616C6C65F2
:1005A000642062656361757365206F6620424C54F8
:1005B0006F756368206572726F72202D207265738B
:1005C000746172742077697468204D3939390A0072
:1005D0004732362043616E63656C6564004732368E
:1005E0002048656174696E67204E6F7A7A6C650089
:1005F0004732362048656174696E67204265640041
:1006000057616974696E6720666F722068656174EE
:1006100075702E0A004669786564204C656E6774B3
:1006200068205072696D6500446F6E652050726974
:100630006D696E67004D616E75616C207072696DD9
:10064000696E672E2E2E004C656176696E672047B5
:100650003236003F53706563696669656420582CC3
:100660005920636F6F7264696E617465206F757471
:10067000206F6620626F756E64732E0A003F2852E9
:100680002965706561742076616C7565206E6F7484
:1006900020706C61757369626C653B206D75737455
:1006A000206265206174206C6561737420312E0AAC
:1006B000003F537065636966696564206E6F7A7A7E
:1006C0006C652074656D7065726174757265206EFD
:1006D0006F7420706C61757369626C652E0A003FDF
:1006E0005370656369666965642066696C616D65F0
:1006F0006E742073697A65206E6F7420706C6175FA
:100700007369626C652E0A003F53706563696669A0
:100710006564207072696D65206C656E6774682011
:100720006E6F7420706C61757369626C652E0A005F
:100730003F537065636966696564206E6F7A7A6C91
:10074000652073697A65206E6F7420706C617573B3
:1007500069626C652E0A003F526574726163746948
:100760006F6E204D756C7469706C696572206D7563
:100770007374206265207370656369666965642EB1
:100780000A003F5370656369666965642052657449
:1007900072616374696F6E204D756C7469706C69F9
:1007A0006572206E6F7420706C61757369626C6520
:1007B0002E0A003F537065636966696564206C6149
:1007C00079657220686569676874206E6F7420703F
:1007D0006C61757369626C652E0A0043292E0A00EC
:1007E0003F5370656369666965642062656420745F
:1007F000656D7065726174757265206E6F742070BE
:100800006C61757369626C65202834302D00473245
:1008100036207374617274696E672E2E2E0A004F33
:1008200046460A0046616465204865696768742029
:1008300000426564204C6576656C696E67200046F1
:1008400061696C656420746F20656E61626C6520FF
:10085000426564204C6576656C696E670A00496E76
:1008600076616C6964206D6573682E0A0050726F42
:1008700062696E6720506F696E7400255320256988
:100880002F2569002E0A002F0050726F62696E6773
:10089000206D65736820706F696E74200020284495
:1008A000525952554E2900473239204175746F20F4
:1008B000426564204C6576656C696E67003F202850
:1008C0004C2C522C462C4229206F7574206F6620C8
:1008D000626F756E64732E0A003F28562965726236
:1008E0006F7365206C6576656C20696D706C6175E1
:1008F0007369626C652028302D34292E0A0042610C
:1009000064205A2076616C75650A004E6F2062691A
:100910006C696E65617220677269640A00473238DB
:10092000205A0041636375726163793A200020693F
:100930007465726174696F6E73206F66200044691C
:100940006420004733342061626F727465642E0A3C
:1009500000546172676574206163637572616379C5
:100960002061636869657665642E0A004465637278
:10097000656173696E672061636375726163792075
:1009800064657465637465642E0A000A44494646CA
:100990004552454E4345205A312D5A323D00507242
:1009A0006F62696E67206661696C65642E0A000A71
:1009B000495445524154494F4E3A20003F2841295D
:1009C0006D706C696669636174696F6E206F7574B0
:1009D000206F6620626F756E64732028302E352D6F
:1009E000322E30292E0A003F28542961726765741F
:1009F000206163637572616379206F7574206F661F
:100A000020626F756E64732028302E30312D312EA8
:100A100030292E0A003F2849297465726174696F74
:100A20006E206F7574206F6620626F756E64732020
:100A300028312D3330292E0A0044657669617469A6
:100A40006F6E0025533A202573005374616E646104
:100A5000726420446576696174696F6E3A20002083
:100A600052616E67653A2000204D61783A2000207F
:100A70004D696E3A20004D65616E3A200046696E00
:100A80006973686564210A002072616E67653A20A7
:100A900000206D61783A2000206D696E3A200020B8
:100AA0007369676D613A2000206D65616E3A2000C0
:100AB0003A207A3A2000206F662000476F696E67FF
:100AC00020746F3A20580043570A00206469723A34
:100AD0000020616E676C653A005374617274207215
:100AE00061646975733A004D343820506F696E74D3
:100AF0000025533A2025642F256400506F736974D4
:100B0000696F6E696E67207468652070726F6265C8
:100B10002E2E2E0A003F4E756D626572206F662084
:100B20006C65677320696E206D6F76656D656E7498
:100B3000206E6F7420706C61757369626C6520281B
:100B4000302D3135292E0A003F2028582C592920D4
:100B50006F7574206F6620626F756E64732E0A0065
:100B60003F53616D706C652073697A65206E6F7498
:100B700020706C61757369626C652028342D353086
:100B8000292E0A004D3438205A2D50726F6265208C
:100B90005265706561746162696C6974792054652D
:100BA00073740A003F2856296572626F7365206C62
:100BB0006576656C20696D706C61757369626C65D2
:100BC0002028302D34292E0A0020496E76616C6968
:100BD00064206578747275646572200047322F470F
:100BE000332062616420706172616D657465727337
:100BF0000A00536C6565702E2E2E00205A3A200094
:100C000020593A200042656420583A20004D65730F
:100C10006820706F696E742063616E6E6F742062FD
:100C200065207265736F6C7665640A00436C696356
:100C30006B20746F20526573756D652E2E2E004EDD
:100C40006F204D6F76652E005072696E7420746946
:100C50006D653A20000A53746174733A2046696CDA
:100C6000616D656E7420757365643A20002C204CAC
:100C70006F6E67657374206A6F623A2000546F74F8
:100C8000616C2074696D653A200053746174733A25
:100C900020002C204661696C65643A20002C2046B7
:100CA000696E69736865643A20005072696E747386
:100CB0003A200053746174733A2000436F6F6C697B
:100CC0006E672E2E2E0048656174696E672E2E2E7B
:100CD0000045202553006F6B006F66660086028119
:100CE000027A027302650244454255473A004D318B
:100CF00031322053687574646F776E004D31313333
:100D000020530042656420436F6F6C696E672E2E1E
:100D10002E004265642048656174696E672E2E2E30
:100D2000005468696E6B6572205632204F46462E1D
:100D3000004348414D4245525F54454D5045524154
:100D400054555245004D4F54494F4E5F4D4F444509
:100D50005300544845524D414C5F50524F54454307
:100D600054494F4E004155544F5245504F52545FD5
:100D700053445F5354415455530050524F4D5054B7
:100D80005F535550504F525400454D455247454EC4
:100D900043595F50415253455200434153455F4CC4
:100DA000494748545F4252494748544E45535300BF
:100DB000544F47474C455F4C494748545300534FA5
:100DC0004654574152455F504F574552004255498E
:100DD0004C445F50455243454E54004C4556454C9B
:100DE000494E475F44415441005A5F50524F42457B
:100DF000004155544F4C4556454C005052494E54B5
:100E00005F4A4F420050524F47524553530041559D
:100E1000544F5245504F52545F54454D5000564F19
:100E20004C554D455452494300454550524F4D0095
:100E300042494E4152595F46494C455F5452414EDA
:100E4000534645520053455249414C5F584F4E5FFF
:100E5000584F4646004649524D574152455F4E4114
:100E60004D453A4D61726C696E20322E302E7820DD
:100E7000284769744875622920534F555243455F8E
:100E8000434F44455F55524C3A68747470733A2F1F
:100E90002F6769746875622E636F6D2F4D61726C78
:100EA000696E4669726D776172652F4D61726C690A
:100EB0006E2050524F544F434F4C5F56455253494A
:100EC0004F4E3A312E30204D414348494E455F54F4
:100ED0005950453A5468696E6B6572205632204508
:100EE000585452554445525F434F554E543A312061
:100EF000555549443A63656465326132662D343133
:100F000061322D343734382D396231322D63353525
:100F10006336326633363766660A002F2F20004D5F
:100F200031343520533C696E6465783E206F7574AA
:100F3000206F662072616E67652028302D31290A86
:100F400000205400205200416363656C6572617437
:100F5000696F6E3A2050005741524E494E4721204A
:100F60004C6F77205A204A65726B206D6179206C36
:100F700065616420746F20756E77616E746564209E
:100F80007061757365732E0A004F4646004F4E0020
:100F900020204D61783A2000200020204D696E3AD3
:100FA0002000536F667420656E6473746F70733ABB
:100FB000200020466C6F773A200050726F74656392
:100FC0007465642050696E0A003A200020536572EF
:100FD000766F2000206F7574206F662072616E67D7
:100FE000650A00536572766F200020643A0020691C
:100FF0003A0020703A00496E76616C696420657829
:101000007472756465720A0020643A0020693A00BF
:1010100020703A0064697300656E0043290A00611C
:10102000626C656420286D696E2074656D702000A7
:10103000436F6C64206578747275646573206172A7
:101040006520004D65736820706F696E7420636160
:101050006E6E6F74206265207265736F6C76656466
:101060000A004D34323120696E636F7272656374A9
:1010700020706172616D657465722075736167655A
:101080000A004F666673657473204170706C696501
:1010900064004572723A20546F6F206661722100BD
:1010A000546F6F206661722066726F6D2072656684
:1010B0006572656E636520706F696E740A004545E0
:1010C00050524F4D204F4B0A003F285929206F7531
:1010D00074206F6620626F756E64732E0A003F285D
:1010E0005829206F7574206F6620626F756E647367
:1010F0002E0A003F285329205A2D50726F626550E6
:101100006F736974696F6E20696E64657820696EAB
:1011100076616C69642E0A003F2853292069732088
:1011200072657175697265642E0A004D3432322021
:1011300053004361703A00290A0020746F20003F79
:101140005A206F7574206F662072616E6765202863
:1011500000290A0020746F20003F59206F75742009
:101160006F662072616E676520282D00290A0020B5
:10117000746F20003F58206F7574206F6620726175
:101180006E676520282D0050726F6265204F66667D
:101190007365742058006F6B00526573656E643A16
:1011A00020002569730025696D2025697300256974
:1011B000682025696D2025697300256964202569EB
:1011C000682025696D2025697300256979202569C6
:1011D00064202569682025696D20256973002364D2
:1011E0006566696E652044454641554C545F006212
:1011F0006564004B6420004B6920004B7020005058
:101200004944204175746F74756E652066696E6916
:1012100073686564212050757420746865206C6162
:101220007374204B702C204B6920616E64204B64DA
:1012300020636F6E7374616E74732066726F6D20BD
:1012400062656C6F7720696E746F20436F6E66699C
:101250006775726174696F6E2E680A005049442088
:101260004175746F74756E65206661696C65642183
:101270002074696D656F75740A00546865726D61DC
:101280006C2052756E617761790048656174696E92
:1012900067206661696C656400504944204175743B
:1012A0006F74756E65206661696C65642120546594
:1012B0006D706572617475726520746F6F206869F6
:1012C00067680A00204B643A2000204B693A2000EE
:1012D000204B703A20000A20436C617373696320CD
:1012E000504944200A00204B643A2000204B693AC0
:1012F0002000204B703A20000A204E6F206F766548
:101300007273686F6F740A002054753A2000204B86
:10131000753A2000206D61783A2000206D696E3AA0
:10132000200020643A200020626961733A20005056
:101330004944204175746F74756E652073746172D1
:10134000740A00504944204175746F74756E6520AD
:101350006661696C6564212054656D7065726174A5
:1013600075726520746F6F20686967680A0050495C
:1013700044204175746F74756E65206661696C6593
:1013800064212042616420657874727564657220FE
:101390006E756D6265720A004572723A20757466E8
:1013A0003820666F6E74206E6F7420696E69746980
:1013B000616C697A65642E004572723A20757466B4
:1013C0003820666F6E74206E6F7420696E69746960
:1013D000616C697A65642E004572723A2075746694
:1013E0003820666F6E74206E6F7420696E69746940
:1013F000616C697A65642E00000C0D00FE07022600
:1014000003BC017FFE08FE08FE0508080600004038
:10141000F0C88888987810050808060000C0F88889
:1014200088888888F80505050600012030F83020F6
:101430000508080600002070F820202020E005099B
:10144000090600FF2070A8A8B88888702005060645
:10145000060001E08CEA8C8A0A0509090600FFF8FB
:10146000A88888888888A8F8050A0A0600FE2050FF
:1014700050505088A8A8887003030306000340A0BA
:1014800040FFFFFFFFFFFFFFFFFFFFFFFFFFFFFF2B
:10149000FFFFFFFFFFFFFF0000000605FF0107073A
:1014A000060200808080808000800303030601051F
:1014B000A0A0A005060606000050F85050F8500500
:1014C00009090600FF2070A8A07028A87020050751
:1014D00007060000C8C810204098980507070600B6
:1014E0000040A0A040A89068010303060205808088
:1014F000800309090601FF20404080808040402091
:101500000309090601FF804040202020404080055B
:10151000070706000020A8702070A8200505050612
:1015200000012020F820200203030601FFC04080B4
:10153000050101060003F8020202060100C0C00511
:101540000707060000081010204040800507070626
:101550000000708898A8C88870030707060100403B
:10156000C040404040E005070706000070880810B2
:101570002040F8050707060000F8081030088870BA
:1015800005070706000010305090F81010050707F7
:10159000060000F880F008088870050707060000BC
:1015A000304080F0888870050707060000F80810B2
:1015B00010202020050707060000708888708888A2
:1015C000700507070600007088887808106002051B
:1015D00005060100C0C000C0C00206060601FFC02B
:1015E000C000C04080030505060101204080402066
:1015F000050303060002F800F80305050601018053
:101600004020408005070706000070881020200059
:10161000200507070600007088B8A8B88070050785
:1016200007060000708888F8888888050707060084
:1016300000F04848704848F0050707060000708829
:101640008080808870050707060000F048484848F9
:1016500048F0050707060000F88080F08080F80554
:101660000707060000F88080F080808005070706E5
:101670000000708880809888700507070600008841
:101680008888F8888888030707060100E040404002
:101690004040E00507070600003810101010906069
:1016A0000507070600008890A0C0A09088050707DE
:1016B000060000808080808080F805070706000013
:1016C00088D8A8888888880507070600008888C801
:1016D000A898888805070706000070888888888889
:1016E00070050707060000F08888F08080800507F5
:1016F0000706000070888888A8906805070706001C
:1017000000F08888F0A09088050707060000708820
:101710008070088870050707060000F82020202048
:1017200020200507070600008888888888887005BB
:10173000070706000088888888505020050707069C
:10174000000088888888A8A8500507070600008838
:101750008850205088880507070600008888502098
:10176000202020050707060000F80810204080F818
:101770000309090601FFE080808080808080E00509
:1017800007070600008040402010100803090906E2
:1017900001FFE020202020202020E0050303060098
:1017A000052050880501010600FEF8030303060129
:1017B000058040200505050600007008788878053A
:1017C00007070600008080F0888888F00505050678
:1017D0000000708080887005070706000008087800
:1017E000888888780505050600007088F0807005F7
:1017F0000707060000304840E04040400507070664
:1018000000FE708888887808700507070600008049
:1018100080F0888888880307070601004000C040E0
:101820004040E00409090601FE10003010101010BD
:10183000906005070706000080808890E09088038C
:101840000707060100C04040404040E0050505068E
:101850000000D0A8A8A8A8050505060000B0C88803
:1018600088880505050600007088888870050707C8
:101870000600FEF0888888F080800507070600FED5
:1018800078888888780808050505060000B0C880B3
:10189000808005050506000078807008F0050707C0
:1018A0000600002020F8202020180505050600006D
:1018B0008888889868050505060000888888502073
:1018C0000505050600008888A8A85005050506003E
:1018D0000088502050880507070600FE8888885039
:1018E000204080050505060000F8102040F8030997
:1018F000090601FF20404040804040402001090986
:101900000602FF8080808080808080800309090635
:1019100001FF804040402040404080050303060016
:101920000248A890FF5072696E742050617573650B
:10193000640046696C2E204469612E004520696E62
:10194000206D6DC2B300200820466163740020083A
:10195000204D6178002008204D696E004F666600BA
:101960004F6E004175746F74656D700056547261EE
:1019700076204D696E00566D696E00566D61782057
:101980004500566D6178205A00566D6178205900E7
:10199000566D6178205800416D6178204500416D99
:1019A0006178205A00416D6178205900416D61785D
:1019B000205800412D54726176656C00412D5265AE
:1019C000747261637400416363656C0056652D4AEF
:1019D00065726B00565A2D4A65726B0056592D4A36
:1019E00065726B0056582D4A65726B0045737465BD
:1019F00070732F6D6D005A73746570732F6D6D0069
:101A00005973746570732F6D6D00587374657073BE
:101A10002F6D6D00416476616E636564205365745B
:101A200074696E6773003F0043616E63656C0049C3
:101A30006E6974004D34323800496E697469616CA6
:101A4000697A6520454550524F4D0046696C616D7D
:101A5000656E740054656D706572617475726500B1
:101A600053746570732F6D6D004A65726B0041632E
:101A700063656C65726174696F6E0056656C6F6347
:101A80006974790053657420486F6D65204F6666F0
:101A90007365747300436F6E66696775726174690C
:101AA0006F6E0053746F72652053657474696E674E
:101AB00073004C6F61642053657474696E677300C2
:101AC00050726F6265205A204F66667365740046D7
:101AD00061646520486569676874004F6666004FF9
:101AE0006E00426564204C6576656C696E670047E0
:101AF00032380A47323900473239004C6576656C16
:101B000020426564004175746F20486F6D65004D1B
:101B10006F74696F6E00436D643A2053746F770081
:101B2000436D643A2053572D4D6F646500436D64D7
:101B30003A204465706C6F7900436D643A205365B8
:101B40006C662D5465737400436D643A205265735E
:101B5000657400426564004E6F7A7A6C6500466178
:101B60006E20537065656400436F6E6669677572B9
:101B70006174696F6E004C6F6164205365747469A1
:101B80006E677300526573746F7265206661696C6D
:101B9000736166650053746F726520536574746970
:101BA0006E6773005072656865617420414253200E
:101BB000436F6E66005072656865617420504C41D9
:101BC00020436F6E6600424C546F7563680050721C
:101BD0006F6265205A204F666673657400416476B3
:101BE000616E6365642053657474696E6773004D3C
:101BF00061696E00436F6E66696775726174696FC3
:101C00006E0054656D7065726174757265004D6F1C
:101C100074696F6E0054756E6500496E666F20536F
:101C2000637265656E004D6F74696F6E004D383478
:101C30000044697361626C652053746570706572ED
:101C400073004732380A4D343820503130004D345B
:101C5000382050726F626520546573740042656469
:101C6000204C6576656C696E6700473334004175BA
:101C7000746F205A2D416C69676E00473238205AC4
:101C800000486F6D65205A00473238205900486F70
:101C90006D65205900473238205800486F6D652027
:101CA0005800473238004175746F20486F6D6500E9
:101CB0004D61696E005072656865617420504C41D9
:101CC00020426564005072656865617420504C4123
:101CD00020456E640050726568656174204142530E
:101CE000204265640050726568656174204142530A
:101CF00020456E640054656D70657261747572651F
:101D000000436F6F6C646F776E0050726568656139
:101D10007420414253005072656865617420504CD4
:101D2000410046616E205370656564203D00426548
:101D300064004E6F7A7A6C65004D61696E00426195
:101D4000627973746570205A00466C6F7700466143
:101D50006E205370656564203D00426564004E6FDF
:101D60007A7A6C65005370656564004D61696E0038
:101D7000202020202020200020202020001FE020E4
:101D800010201020101020102020102010303008BB
:101D900040048003001FE03FF03FF03FF01FE01FD2
:101DA000E03FF03FF03FF00FC0078003003FFFF03F
:101DB00038007030FC3020FC102078102030102CBF
:101DC00000D02E31D02F7BD02F7BD02E31D02C00C5
:101DD000D020301020781020FC1030FC30380070FB
:101DE0003FFFF03FFFF03800703186302387102727
:101DF00087902F87D02F03D02030102078102078A4
:101E0000102030102F03D02F87D0278790238710E2
:101E10003186303800703FFFF01FFFF81FFFF804D5
:101E200010400208200208200410400820801041C1
:101E3000001041000820800410400000001FFFF83F
:101E40001FFFF85468696E6B657220563220526528
:101E50006164792E005072696E74696E672E2E2E41
:101E6000000000964300007A430000AF43000000EA
:101E7000000000000000000000290A0020627974C0
:101E800065733B20637263200053657474696E67E9
:101E9000732053746F726564202800454550524F7B
:101EA0004D206461746173697A65206572726F7226
:101EB0002E0A00290A002062797465733B20637240
:101EC0006320002073746F72656420736574746995
:101ED0006E67732072657472696576656420280088
:101EE000202863616C63756C6174656429210A0044
:101EF00020213D2000454550524F4D204352432064
:101F00006D69736D61746368202D202873746F721E
:101F100065642920002053697A653A2000496E647F
:101F200065783A2000204D61726C696E3D563734F9
:101F3000290A00454550524F4D2076657273696FEE
:101F40006E206D69736D6174636820284545505239
:101F50004F4D3D0048617264636F64656420446561
:101F60006661756C742053657474696E6773204C78
:101F70006F616465640A00000096430000964300A8
:101F800000A0400000C8410000A0420000A04200A4
:101F900000C8430000BA42DC050000DC0500003246
:101FA000000000DC0500003A0A0020204D383531E1
:101FB0002058005A2D50726F6265204F6666736517
:101FC000740020440020490020204D33303420503C
:101FD0000020440020490020204D333031205000A3
:101FE0005049442073657474696E67733A0A00201F
:101FF000460020420020480020204D313435205337
:10200000004D6174657269616C20686561747570FA
:1020100020706172616D65746572733A0A00204ABE
:10202000002020473239205720490020204D3432EB
:10203000302053004175746F20426564204C6576F2
:10204000656C696E673A0A0020204D3230362058A0
:1020500000486F6D65206F66667365743A0A0020EC
:10206000580020540020530020204D3230352042AB
:102070000020453C6D61785F655F6A65726B3E006C
:1020800020583C6D61785F785F6A65726B3E2059BD
:102090003C6D61785F795F6A65726B3E205A3C6D7A
:1020A00061785F7A5F6A65726B3E00416476616E4B
:1020B0006365643A20423C6D696E5F7365676D6568
:1020C0006E745F74696D655F75733E20533C6D6916
:1020D0006E5F66656564726174653E20543C6D692F
:1020E0006E5F74726176656C5F666565647261745B
:1020F000653E0020540020520020204D3230342014
:102100005000416363656C65726174696F6E20286D
:10211000756E6974732F7332293A20503C7072695E
:102120006E745F616363656C3E20523C72657472CD
:102130006163745F616363656C3E20543C747261DB
:1021400076656C5F616363656C3E0A0020204D32EA
:1021500030312058004D6178696D756D20416363A1
:10216000656C65726174696F6E2028756E69747331
:102170002F7332293A0A0020204D32303320580084
:102180004D6178696D756D20666565647261746511
:10219000732028756E6974732F73293A0A0053747B
:1021A0006570732070657220756E69743A0A00203C
:1021B000204D3230302044300A0020204D32303063
:1021C0002044002044697361626C65640A004669BA
:1021D0006C616D656E742073657474696E67733AB3
:1021E0000020204D3134392043203B20556E697446
:1021F0007320696E2043656C736975730A0020282B
:102200006D6D29002020473231202020203B2055B1
:102210006E69747320696E206D6D006F70656E005D
:10222000545249474745524544003A20007A5F6D71
:10223000696E00795F6D696E00785F6D696E00523E
:1022400065706F7274696E6720656E6473746F7009
:10225000207374617475730A00205A3A0020593A49
:102260000020436F756E7420583A0020453A0020D4
:102270005A3A0020593A00583A0020746F6F206C87
:102280006F6E6720657874727573696F6E207072F7
:102290006576656E7465640A0020636F6C64206502
:1022A0007874727573696F6E2070726576656E747E
:1022B00065640A00486F6D696E67204661696C65E8
:1022C00064000000000000000000000000000000AA
:1022D000484200004842000080405761726E696EBB
:1022E000673A20486F6D696E672042756D702044B3
:1022F000697669736F72203C20310A000202040083
:1023000000A0400000A040000000400000964300F4
:10231000007A430000AF43FFFFFF24F4D43050C3E2
:102320008E20C2A24017828B7011127A910D816C9F
:10233000D90AA861E108C7586607615143061E4BD8
:102340005D05C145A7041A411104093D980371397F
:1023500031034036DB0265339102D4305402802EC3
:102360001D02632CEE01752AC501B028A0011027BB
:1023700081018F2564012B244B01E0223401AC2123
:102380001F018D200D01801FFC00841EED00971D94
:10239000DF00B81CD200E61BC600201BBC00641A7C
:1023A000B200B219A8000A19A0006A189900D11742
:1023B000910040178B00B516840031167E00B315CE
:1023C00079003A157300C7146F0058146A00EE13B1
:1023D00066008813630025135E00C7125B006C1251
:1023E000570015125400C111510070114F002111F6
:1023F0004B00D61049008D104700461044000210D3
:102400004200C00F4000800F3E00420F3C00060F0C
:102410003B00CB0E3800930E37005C0E3500270EC4
:102420003400F30D3200C10D3100900D3000600D0D
:102430002E00320D2D00050D2C00D90C2B00AE0CFA
:102440002900850C29005C0C2700350C27000E0C98
:102450002600E80B2400C40B2400A00B23007D0BF6
:1024600023005A0B2100390B2100180B2000F80A19
:102470001F00D90A1E00BB0A1E009D0A1D00800A0B
:102480001D00630A1C00470A1B002C0A1B00110ACE
:102490001A00F7091A00DD091900C4091900AB096F
:1024A0001900920917007B091800630917004C09ED
:1024B000160036091600200916000A091500F5084D
:1024C0001500E0081400CC081400B8081400A40893
:1024D0001400900813007D0812006B0813005808C0
:1024E00012004608120034081100230811001208D7
:1024F000110001081100F0071000E0071000D007DC
:102500001000C0071000B0070F00A10710009107CE
:102510000E0083070F0074070F0065070E005707B2
:102520000E0049070E003B070D002E070E00200786
:102530000D0013070D0006070D00F9060C00ED064F
:102540000D00E0060C00D4060C00C8060C00BC060A
:102550000C00B0060C00A4060B0099060C008D06BA
:102560000B0082060B0077060B006C060B00610661
:102570000A0057060B004C060A0042060A003806FD
:102580000A002E060A0024060A001A060A0010068F
:10259000090007060A00FD050900F4050900EB051E
:1025A0000900E2050900D9050900D0050900C705A1
:1025B0000900BE050900B5050800AD050800A50520
:1025C00009009C050800940508008C050800840596
:1025D00008007C050800740508006C050700650507
:1025E00008005D050700560508004E050700470571
:1025F00007004005080038050700310507002A05D7
:102600000700230507001C050600160507000F0537
:1026100007000805060002050700FB040600F50494
:102620000700EE040600E8040600E2040700DB04ED
:102630000600D5040600CF040600C9040600C30442
:102640000600BD040600B7040600B1040500AC0492
:102650000600A6040600A00405009B0406009504DD
:102660000500900406008A04050085040500800426
:1026700006007A04050075040500700405006B046B
:10268000050066040500610405005C0405005704AC
:102690000500520405004D040500480405004304EC
:1026A00005003E0404003A0405003504050030042A
:1026B00004002C04050027040400230405001E0464
:1026C00004001A04040016040500110404000D049B
:1026D0000400090405000404040000040400FC03D1
:1026E0000400F8030400F4030400F0030400EC0306
:1026F0000400E8030400E4030400E0030400DC0336
:102700000400D8030400D4030400D0030400CC0365
:102710000400C8030300C503030024F404D9201BEC
:10272000C40C5C0E9804C4095F0265077101F405CE
:10273000F900FB04B30048048700C1036900580393
:10274000550003034500BE023A00840231005302E3
:102750002A002902250004022000E4011C00C8010F
:102760001900AF01170098011400840113007101D2
:1027700010006101100051010E0043010D003601EF
:102780000B002B010B0020010B00150109000C01AF
:10279000090003010800FB000800F3000800EB003B
:1027A0000700E4000600DE000600D8000600D200A4
:1027B0000600CC000500C7000500C2000500BD00F2
:1027C0000400B9000400B5000400B1000400AD002D
:1027D0000400A9000400A5000300A20003009F005C
:1027E00004009B0003009800030095000200930082
:1027F0000300900003008D0002008B00030088009E
:1028000002008600020084000300810002007F00B5
:1028100002007D0002007B000200790002007700C8
:1028200001007600020074000200720001007100D5
:1028300002006F0002006D0001006C0002006A00DF
:1028400001006900020067000100660001006500E8
:1028500001006400020062000100610001006000EC
:1028600001005F0002005D0001005C0001005B00F0
:1028700001005A00010059000100580001005700F2
:1028800001005600010055000100540001005300F2
:1028900000005300010052000100510001005000EF
:1028A00001004F0001004E0000004E0001004D00ED
:1028B00001004C0001004B0000004B0001004A00E9
:1028C00001004900010048000000480001004700E5
:1028D00001004600000046000100450000004500E0
:1028E00001004400010043000000430001004200D9
:1028F00000004200010041000000410001004000D2
:1029000001003F0000003F0001003E0000003E00CB
:1029100001003D0000003D0001003C0000003C00C3
:1029200000003C0001003B0000003B0001003A00B9
:1029300000003A00010039000000390001003800B1
:1029400000003800000038000100370000003700A8
:10295000010036000000360000003600010035009E
:102960000000350000003500010034000000340094
:102970000000340001003300000033000000330089
:10298000010032000000320000003200010031007E
:102990000000310000003100010030000000300074
:1029A0000000300001002F0000002F0000002F0069
:1029B00000002F0001002E0000002E0000002E005D
:1029C00001002D0000002D0000002D0000002D0052
:1029D00001002C0000002C0000002C0000002C0046
:1029E00001002B0000002B0000002B0000002B003A
:1029F00001002A0000002A0000002A0000002A002E
:102A00000100290000002900000029000000290021
:102A10000000290001002800000028000000280014
:102A20000000280000002800010027000000270007
:102A300000002700000027000000270001002600FA
:102A400000002600000026000000260000002600EE
:102A500001002500000025000000250000002500E1
:102A600000002500000025000100240000002400D3
:102A700000002400000024000000240001002300C6
:102A800000002300000023000000230000002300BA
:102A900000002300000023000100220000002200AB
:102AA000000022000000220000002200000022009E
:102AB0000100210000002100000021000000210091
:102AC0000000210000002100000021000100200082
:102AD0000000200000002000000020000000200076
:102AE00000002000000020000000200001001F0066
:102AF00000001F0000001F0000001F0000001F005A
:102B000000001F0000001F0001001E0000001E004A
:102B100000001E0000001E000000043700001E29F7
:102B20000000511B00005810000010090000CC04E8
:102B3000000078020000410100004D6963726F736C
:102B40007465707320756E617661696C61626C6525
:102B50000A0045313A200045303A20005A3A200018
:102B6000593A20004D53312C4D53322C4D533320C4
:102B700050696E730A583A2000004265640045317E
:102B800000626564002C2073797374656D20737422
:102B90006F7070656421204865617465725F494497
:102BA0003A200048656174696E67206661696C65EA
:102BB0006400546865726D616C2052756E61776156
:102BC000790048656174696E67204661696C656467
:102BD0000048656174696E67206661696C656400B0
:102BE000546865726D616C2052756E617761790011
:102BF00040012C0173012201AB011801F3010E0108
:102C000048020401AC02FA002A03F000C303E60004
:102C10008004DC006D05D2006C06C800C707BE004A
:102C20007009B4006D0BAA00CB0DA000CF138C006F
:102C3000F21B7800E9246400142E50009C353C00FF
:102C4000B83A2800A03D14000B3F000054484552FC
:102C50004D414C2052554E415741590054686572C0
:102C60006D616C2052756E61776179004572723AC0
:102C7000204D415854454D50004D415854454D50FC
:102C800020747269676765726564004572723A20E4
:102C90004D494E54454D50004D494E54454D5020E0
:102CA00074726967676572656400202F0020424076
:102CB0003A0020403A0020573A0020573A00496E27
:102CC00076616C69642065787472756465720A0057
:102CD00000002200250028002B002E0031003400C7
:102CE00002010000050108010B0100002000230083
:102CF000260029002C002F003200000100000301F3
:102D00000601090100000A0B02090C0D0E08070359
:102D100004010000000000000000000000000000AE
:102D200000000000000000000000000000000000A3
:102D30001211100000000000000000000000000060
:102D400000000000000000000000687474703A2F5A
:102D50002F6D61726C696E66772E6F726700322E0E
:102D6000302E780001FFFFFFFFFFFFFFFFFFFFFF97
:102D7000FFFF0FFFFFFFFFFFFFFFFFFFFFFFFFFF53
:102D80001E0000000000000000000007FFFF3800E8
:102D900000000000000000000003FFFF70000000C2
:102DA0000000000000000001FFFF600000000000C4
:102DB000000000000000FFFF6000000000000000B5
:102DC000000000007FFFC00000000000000000784D
:102DD00000003FFFC00FC0FC00000000007818009A
:102DE0001FFFC03FE1FF0000000000783C000FFF24
:102DF000C07FF3FF8000000000783C0007FFC0FFA9
:102E0000FFFFC000000000783C0003FFC1F87F878F
:102E1000E00000000078000001FFC1F03F03E00087
:102E200000000078000000FFC1E01E01E01F000369
:102E3000E0783C03F07FC1E01E01E07FC00FF8782E
:102E40003C07FC3FC1E01E01E1FFE01FFC783C0FA6
:102E5000FE1FC1E01E01E3FFF03FFE783C1FFE0FA6
:102E6000C1E01E01E3F3F83F3E783C3F3F07C1E07D
:102E70001E01E7E0FC7C1F783C3E1F07C1E01E01FD
:102E8000E7C07C7C0F783C3C0F03C1E01E01E7806B
:102E90007C780F783C3C0F03C1E01E01E7803C7852
:102EA00000783C3C0F03C1E01E01E7803C780078CD
:102EB0003C3C0F03C1E01E01E7803C7800783C3CBD
:102EC0000F03C1E01E01E7C03C7800783C3C0F03D3
:102ED000C1E01E01E3E03C78007C3C3C0F03C1E014
:102EE0001E01E3FF3FF8007FBC3C0F03C1E01E0161
:102EF000E1FF3FF8003FBFFC0F03C1E01E01E0FF10
:102F00003FF8001FBFFC0F03C1E01E01E07F3FF848
:102F1000000FBFFC0F036000000000000000000075
:102F2000000000076000000000000000000000003A
:102F30000006700000000000000000000000000E0D
:102F4000380000000000000000000000001C1E000F
:102F50000000000000000000000000780FFFFFFFED
:102F6000FFFFFFFFFFFFFFFFFFF001FFFFFFFFFF7E
:102F7000FFFFFFFFFFFFFF8000002100240027006C
:102F80002A002D0030003300010100000401070178
:102F90000A01010210202008081020401020408063
:102FA000020102010804020101020408102040800D
:102FB000804020100804020180040201804020109B
:102FC00008040201080402010102040810204080E4
:102FD00001020408102040800505050507050808C2
:102FE0000808020202020A0A080804040404010193
:102FF00001010101010103030303030303030407A8
:1030000007070C0C0C0C0C0C0C0C0202020206063E
:103010000606060606060B0B0B0B0B0B0B0B2050C4
:1030200049445F64543A0020643A002069693A00D8
:1030300020703A002020506C616E6E657242756699
:1030400066657242797465733A2000204672656540
:10305000204D656D6F72793A2000436F6D70696C19
:1030600065643A2041707220313320323032300AA8
:1030700000204C61737420557064617465643A205B
:10308000323031392D31322D3031207C2041757470
:10309000686F723A20286E6F6E652C2064656661D9
:1030A000756C7420636F6E666967290A00322E3072
:1030B0002E780A004D61726C696E0020536F667441
:1030C000776172652052657365740A0020576174D8
:1030D0006368646F672052657365740A00204272EA
:1030E0006F776E206F75742052657365740A0020C7
:1030F00045787465726E616C2052657365740A0060
:10310000506F77657255700A0073746172740A00AB
:10311000456E6473746F70730025532025632025FA
:103120006320256320256300205A3A0020593A0085
:1031300020583A00656E6473746F70732068697408
:103140003A20004D6F76652025736D6D00004D6F40
:10315000766520302E316D6D004D6F766520316DB6
:103160006D004D6F76652031306D6D004D6F766569
:10317000204178697300486F74656E6420746F6FC6
:1031800020636F6C64004578747275646572004DDD
:103190006F7665205A004D6F76652059004D6F7629
:1031A0006520580050726F62696E67204661696CD5
:1031B00065640A0050726F62696E67204661696CCF
:1031C000656400205A3A200020593A200042656484
:1031D00020583A2000486F6D6520257325732573AC
:1031E00020466972737400220A00556E6B6E6F7709
:1031F0006E20636F6D6D616E643A20220020450081
:10320000205A00205900204D393220580020746F78
:103210006F206C6F6E6720657874727573696F6E5E
:103220002070726576656E7465640A0020636F6C49
:103230006420657874727573696F6E20707265763C
:10324000656E7465640A0000F5FF11241FBECFEFA0
:10325000D1E2DEBFCDBF00E00CBF13E0A0E0B2E0E2
:10326000E6EFF9E202E00BBF02C007900D92A03634
:10327000B107D9F720E1A0E6B3E001C01D92A23A60
:10328000B207E1F719E1C5E2D9E100E006C02197F4
:103290000109802FFE010F94A714C432D10780E0EA
:1032A0000807A9F70F94E8000D94F9140C94000096
:1032B000CF93DF93EC01CB01BA010F94250B20E0F3
:1032C00030E048EC51E40F94840B0F94F0126883C3
:1032D00079838A839B83DF91CF910895CF93DF9386
:1032E000EC01CB01BA010F94250B2AE037ED43E244
:1032F0005CE30F94840B688379838A839B83DF91DB
:10330000CF910895CF93DF93EC01CB01BA010F94D5
:10331000250B2AE037ED43E25CE30F94840B6883CE
:1033200079838A839B83DF91CF910895CF93DF9335
:10333000EC01CB01BA010F94250B2DEC3CEC4CECCD
:103340005DE30F94840B688379838A839B83DF9189
:10335000CF910895CF93DF93EC01CB01BA010F9485
:10336000250B20E030E048EC51E40F94840B688397
:1033700079838A839B83DF91CF910895CF93DF93E5
:10338000EC01CB01BA010F94250B688379838A8302
:103390009B83DF91CF910895CF93DF93EC01CB0115
:1033A000BA010F94250B688379838A839B83DF910D
:1033B000CF910895CF93DF93EC01CB01BA010F9425
:1033C000250B2FE632E143E85AE30F94840B688320
:1033D00079838A839B83DF91CF910895CF93DF9385
:1033E000EC01CB01BA010F94250B0F94EB127983FA
:1033F0006883DF91CF910895CF93DF93EC01CB01E8
:10340000BA010F94250B23E333E343E250E40F9416
:10341000840B0F94F0126883DF91CF910895FC0123
:1034200084910895FC018081089590910501947024
:103430009093030187FD68C0A39890910501909532
:1034400094709093030190910501947090930301FF
:1034500086FD66C0A3989091050190959470909315
:1034600003019091050194709093030185FD56C06E
:10347000A398909105019095947090930301909179
:10348000050194709093030184FD46C0A398909128
:1034900005019095947090930301909105019470AB
:1034A0009093030183FD36C0A398909105019095F8
:1034B000947090930301909105019470909303018F
:1034C00082FD26C0A39890910501909594709093E9
:1034D00003019091050194709093030181FD16C042
:1034E000A398809105018095847080930301809159
:1034F0000501847080930301A39880910501809554
:103500008470809303010895A39A97CFA39AE9CF7B
:10351000A39AD9CFA39AC9CFA39AB9CFA39AA9CF77
:10352000A39A99CF089590E080E00895282F909174
:103530004004833021F495FD0FC094FD0FC0892F06
:1035400090E0B0E0A0E004C0B695A7959795879568
:103550002A95D2F78170089581E0089580E008955A
:10356000CF92DF92EF92FF92CF93DF93EC016A014B
:103570007B0127E137EB41ED58EBCB01B6010F940E
:10358000CD1387FD23C027E030E04AE753E4C701AD
:10359000B6010F941F0B1816CCF0C880D980EA80B2
:1035A000FB8027E137EB41ED58EBC701B6010F94E3
:1035B000CD1387FD0BC0C1E023E030E046E953E4C2
:1035C000C701B6010F941F0B18160CF4C0E08C2F26
:1035D000DF91CF91FF90EF90DF90CF9008952F92E1
:1035E0003F924F925F926F927F928F929F92AF9293
:1035F000BF92CF92DF92EF92FF920F931F93CF93E0
:10360000DF93CDB7DEB72E970FB6F894DEBF0FBEAF
:10361000CDBFF82EE62E042F122F282F30E03A8748
:103620002987862F90E09C878B87220F331FA985DF
:10363000BA852A0F3B1F3E872D87FC01E20FF31F3F
:10364000EE0FFF1FEE0FFF1FED59FA4F60817181E2
:10365000828193819B01AC010F945514882309F456
:1036600040C1802F8F0D612F6E0D282F30E0F901A2
:10367000EE0FFF1FE20FF31FAB85BC85AE0FBF1F20
:10368000AA0FBB1FAA0FBB1FAD59BA4FAC90119622
:10369000BC9011971296CC9012971396DC90080F5D
:1036A000802F90E0AC01440F551F480F591FAB8588
:1036B000BC85A40FB51FAA0FBB1FAA0FBB1FAD5916
:1036C000BA4FEC901196FC90119712960C911297AC
:1036D00013969C90862F90E0AD85BE85A80FB91FEC
:1036E000AA0FBB1FAA0FBB1FAD59BA4F8C901196E2
:1036F0007C90119712966C90129713965C90610FC4
:1037000070E02D853E85260F371F220F331F220FB5
:10371000331F2D593A4F3E872D87D9014C90119672
:103720003C90119712961C91129713962C90E80FCB
:10373000F91FEE0FFF1FEE0FFF1FED59FA4FB0817B
:10374000B98321812A8332813B8383818C83FA016F
:10375000E60FF71FEE0FFF1FEE0FFF1FED59FA4F99
:1037600090819D83A181AE83B281BF83238128870D
:103770009701402F592DB701802F992D0F94551483
:10378000882321F0E12CF12C00E0912C9501A60179
:10379000B501C6010F945514882319F05701C02EA6
:1037A000D92C242D332D412F522D642D732D812F93
:1037B000922D0F945514882321F0412C312C10E0C8
:1037C000212C282D372D462D552D682D772D862D12
:1037D000952D0F945514882321F0842C732C612E81
:1037E000522C2D813E814F8158856D817E818F8144
:1037F00098850F945514882321F01D821E821F8204
:10380000188629813A814B815C8169817A818B811B
:103810009C810F945514882341F03D8139838E811A
:103820008A839F819B83A885AC83E985FA85EE0F07
:10383000FF1F29853A85E20FF31F8B859C85E80FD2
:10384000F91FEE0FFF1FEE0FFF1FED59FA4FFA871A
:10385000E9879501A601B501C6010F94A71197014B
:10386000402F592D0F94A6116B017C01282D372D67
:10387000462D552D682D772D862D952D0F94A7114A
:10388000242D332D412F522D0F94A6119B01AC01F5
:10389000C701B6010F94A7116B017C0129813A8100
:1038A0004B815C8169817A818B819C810F94A71106
:1038B0002D813E814F8158850F94A6119B01AC014B
:1038C000C701B6010F94A71120E030E040E450E4B6
:1038D0000F948312A985BA856D937D938D939C93E4
:1038E00013972E960FB6F894DEBF0FBECDBFDF91B3
:1038F000CF911F910F91FF90EF90DF90CF90BF90ED
:10390000AF909F908F907F906F905F904F903F907F
:103910002F900895149A0895CF93DF9300D01F92AB
:10392000CDB7DEB70F94250B2AE037ED43E25CE319
:103930000F94840B69837A838B839C83CE010196D9
:103940000E944D970F900F900F900F90DF91CF91A5
:103950000895CF93DF9300D01F92CDB7DEB70F94B9
:10396000250B2DEC3CEC4CEC5DE30F94840B698350
:103970007A838B839C83CE0101960E944B950F9096
:103980000F900F900F90DF91CF910895CF93DF9319
:1039900000D01F92CDB7DEB70F94250B20E030E0AA
:1039A00048EC51E40F94840B69837A838B839C8366
:1039B000CE0101960E94A1990F900F900F900F9049
:1039C000DF91CF910895CF93DF9300D01F92CDB7B1
:1039D000DEB70F94250B69837A838B839C83CE019A
:1039E00001960E94A1990F900F900F900F90DF9178
:1039F000CF910895CF93DF9300D01F92CDB7DEB75C
:103A00000F94250B2FE632E143E85AE30F94840B21
:103A100069837A838B839C83CE0101960E94AFD900
:103A20000F900F900F900F90DF91CF910895CF934B
:103A3000DF9300D01F92CDB7DEB70F94250B2AE09D
:103A400037ED43E25CE30F94840B69837A838B83C5
:103A50009C83CE0101960E94639D0F900F900F9062
:103A60000F90DF91CF9108950F94250B0F94EB12D7
:103A7000CB010C9449A20F94250B23E333E343E2DB
:103A800050E40F94840B0F94F012862F0C944DA7E2
:103A9000AF92BF92CF92DF92EF92FF920F931F935C
:103AA000CF93DF936B01E9014A3009F4ADC0453192
:103AB00009F062C0DB011296ED91FC91F280C681A3
:103AC000D781A49A88E28A950000E9F7BF2CB294C6
:103AD00020EFB22230E1A32EAF0C48E2E42E88EFB3
:103AE000A4DC8E2D8A950000E9F7BFE1BF1508F42C
:103AF0007AC08F2D8077806898DC8B2D96DC8E2D98
:103B00008A950000E9F780E890DC80E08EDC8E2D5D
:103B10008A950000E9F78AEF88DC8E2D8A950000EF
:103B2000E9F78E01005F1F4F8881807F7EDC8991DD
:103B30008295807F7ADCC017D107B1F78E2D8A95E8
:103B40000000E9F7F394E0E1BE0EFA10C8CFA498A4
:103B5000D6011296CD91DC91CE010E94F3DF811146
:103B600011C2DF91CF911F910F91FF90EF90DF90E5
:103B7000CF90BF90AF900895FB0102811381423333
:103B800009F4BBC108F4BFC1463409F4ACC14734E1
:103B900009F4AFC14B3329F589812B81D8011296E5
:103BA0006C91129713964C91213009F402C2233084
:103BB00009F0CCC138EF380F582F91E0431708F4C3
:103BC00090E041E0531708F040E031E0561708F468
:103BD00030E0592F542B352309F0E0C1942309F02C
:103BE000DDC181E0BECF80EE8F0D8068807F1DDC5F
:103BF0008F2D8295807F19DC8E2D8A950000E9F744
:103C000080E813DC80E882CF9C9AA4989B9AA398C2
:103C10008091040184608093040180910501809566
:103C2000847080930301A49A88E28A950000E9F7E2
:103C300088E790E0CEE9DFE0FE013197F1F70197E8
:103C4000D9F788EFF2DB18E2812F8A950000E9F7B7
:103C500080E2EBDB80E0E9DB812F8A950000E9F769
:103C600080E0E3DB80E8E1DB812F8A950000E9F763
:103C700080E0DBDB80E1D9DB812F8A950000E9F76A
:103C8000CE010197F1F7CE010197F1F7CE0101972F
:103C9000F1F7CE010197F1F7CE010197F1F7CE01CF
:103CA0000197F1F7CE010197F1F7CE010197F1F7F6
:103CB000CE010197F1F7CE010197F1F7CE010197FF
:103CC000F1F7CE010197F1F7CE010197F1F7CE019F
:103CD0000197F1F72197F1F780E2A7DB80E4A5DBFC
:103CE000812F8A950000E9F780E29FDB80E69DDB6B
:103CF0001A950000E9F710E0D0E0C8E28D2F807738
:103D0000806893DB812F91DB8C2F8A950000E9F787
:103D100080E88BDB80E089DB8C2F8A950000E9F757
:103D20008AEF83DB8C2F8A950000E9F790E280917F
:103D30000501847080930301A3988091050180950B
:103D40008470809303018091050184708093030146
:103D5000A3988091050180958470809303018091E0
:103D60000501847080930301A398809105018095DB
:103D70008470809303018091050184708093030116
:103D8000A3988091050180958470809303018091B0
:103D90000501847080930301A398809105018095AB
:103DA00084708093030180910501847080930301E6
:103DB000A398809105018095847080930301809180
:103DC0000501847080930301A3988091050180957B
:103DD00084708093030180910501847080930301B6
:103DE000A398809105018095847080930301809150
:103DF0000501847080930301A3988091050180954B
:103E00008470809303018091050184708093030185
:103E1000A39880910501809584708093030180911F
:103E20000501847080930301A3988091050180951A
:103E30008470809303018091050184708093030155
:103E4000A3988091050180958470809303018091EF
:103E50000501847080930301A398809105018095EA
:103E60008470809303018091050184708093030125
:103E7000A3988091050180958470809303018091BF
:103E80000501847080930301A398809105018095BA
:103E900084708093030180910501847080930301F5
:103EA000A3988091050180958470809303018C2FE5
:103EB0008A950000E9F7915009F039CF88EFB5DA1B
:103EC0008C2F8A950000E9F7DF5F105FD03209F090
:103ED00015CF80E0AADA80ECA8DACA950000E9F7ED
:103EE000A49881E03ECED80115968C91888381E01C
:103EF00038CEF80181818883FACFB901C8010E94C8
:103F0000DDDF81E02ECE443171F0473109F069CE1A
:103F10001882F80182818983858181508A83838117
:103F20008B8381E01ECED80115964C91159750E0F9
:103F3000440F551F70E060E016968D919C910F9490
:103F4000AF14C8010E9409E081E00BCE481708F4C5
:103F500048CE861708F445CEFA80E12CD12C2430C7
:103F600070F41DC0BE01C8010E94DDDF8981988107
:103F70009D0D98838E0D8983FF0C09F432CEF7FED8
:103F8000F6CFF0CF4D8150E0440F551F70E060E058
:103F90008E819F810F94AF1481E0E3CDFA8030E0F1
:103FA000F901E155FD4FD08025553D4FF901E080E5
:103FB000E6CF58E0580F382F00CEDF92EF92FF92F5
:103FC0000F931F93CF93DF93EC01D62E1CAD0BAD57
:103FD0007C0184E0E80EF11CE98DFA8DC70119958A
:103FE000412F480F2D2D602FC7010E94EFE29BAD9E
:103FF000890F8BAF81E090E0DF91CF911F910F91FE
:10400000FF90EF90DF9008958F929F92AF92BF92B2
:10401000CF92DF92EF92FF920F931F93CF93DF9394
:10402000EC018B017A018A859B858617970731F011
:10403000888199810E94C9E11B870A8788859985B3
:10404000019641F50C81DA808E81D80EA880B98066
:10405000D5015596ED91FC91C5011995080F10E019
:10406000F70121917F0121114FC08E819F81810F26
:10407000911D9F838E8390E080E0DF91CF911F910F
:104080000F91FF90EF90DF90CF90BF90AF909F90F7
:104090008F900895CE80DF80F701008110E000232B
:1040A00021F1A880B980602FC5010E9421E2D501CD
:1040B00051961C9111954701BFEF8B1A9B0AF40191
:1040C00081914F01882351F0D50150969C91190F91
:1040D000082F682FC5010E9421E2F1CF003281F044
:1040E000F50183899189890F180FC10ED11C28858C
:1040F00039852C153D0508F0A5CF81E090E0BDCFB6
:10410000D50150968C91F0CF402F6D2DC5010E94A6
:10411000EFE2D80E180FA4CFEF92FF920F931F93E8
:10412000CF93DF93CDB7DEB72C970FB6F894DEBFF1
:104130000FBECDBF1091C20E0091C30E209121057C
:1041400021111BC048EB53E1602F812F0E9459E3DE
:1041500090E080E0180F1093C20E0093C30E9927D1
:104160002C960FB6F894DEBF0FBECDBFDF91CF9176
:104170001F910F91FF90EF900895E0908F0EF090B7
:10418000900E2BE83EE03A832983212F30E03C83D8
:104190002B83202F30E03E832D8318861F827A8761
:1041A00069871C861B869E012F5F3F4F4FE05AE1B7
:1041B000BC01C7010E942ECAB7018BE89EE00E9495
:1041C000C9E18F819885C6CF2F923F924F925F921F
:1041D0006F927F928F929F92AF92BF92CF92DF9217
:1041E000EF92FF920F931F93CF93DF93D62FC72F9A
:1041F000FC0180809180A280B380C501B40120E8D9
:1042000031E541E050E00F944911C9016DE671E0DC
:104210000F9480146B017C01C501B40120E13EE0E4
:1042200040E050E00F944911CA01B90128E130E0A3
:1042300040E050E00F944911362E272E062F172FFD
:104240008CE3482E512C612C712CC501B401A301C3
:1042500092010F944911B62EA72ECA01B901A301EC
:1042600092010F944911CB01C114D10479F1AF929D
:10427000BF927F936F932F923F92FF92EF92DF92C4
:10428000CF928AEC91E19F938F93CF93DF930F941A
:10429000B80A8DB79EB70E960FB6F8949EBF0FBEA4
:1042A0008DBF8D2F9C2FDF91CF911F910F91FF908C
:1042B000EF90DF90CF90BF90AF909F908F907F90C6
:1042C0006F905F904F903F902F900895E114F1040C
:1042D000C9F0AF92BF927F936F932F923F92FF925C
:1042E000EF928AEB91E19F938F93CF93DF930F949B
:1042F000B80AEDB7FEB73C960FB6F894FEBF0FBEF6
:10430000EDBFCFCF012BB9F0AF92BF927F936F93E8
:104310002F923F928EEA91E19F938F93CF93DF93F9
:104320000F94B80A8DB79EB70A960FB6F8949EBF41
:104330000FBE8DBFB6CF892BA9F0AF92BF927F93EE
:104340006F9386EA91E19F938F93CF93DF930F94BE
:10435000B80AEDB7FEB738960FB6F894FEBF0FBE99
:10436000EDBF9FCFAF92BF9282EA91E19F938F936F
:10437000CF93DF930F94B80A0F900F900F900F9088
:104380000F900F908ECFCF92DF92EF92FF920F930C
:104390001F93CF93DF936B017A01EC01CD59DC4F72
:1043A00028813CE0389F8001399F100D112427FFA0
:1043B00024C0FB011182108288818F5F88838881ED
:1043C0009801280F311D87FD3A95C9012091600E93
:1043D000F6012817190629F024F088818C300CF496
:1043E0003CC080819181049680349C4908F475C05A
:1043F000F60180819181049672C088819801280F0E
:10440000311D87FD3A95C9012091600E28171906C4
:1044100099F294F28881A801480F511D87FD5A95A1
:10442000FA01EE0FFF1FE40FF51FEC50F24F8081F1
:1044300087FFC2CF8881F801E80FF11D87FDFA954B
:10444000CF01EE0FFF1FE80FF91FEC50F24F8081F4
:1044500060E08F770E9458DDAFCF80819181288105
:10446000A801420F511D27FD5A959A01FA01EE0F3E
:10447000FF1FE20FF31FEC50F24F21813281820FB8
:10448000931FF7019183808388819801280F311D44
:1044900087FD3A95F901EE0FFF1FE20FF31FEC5075
:1044A000F24F808187FF20C08881080F111D87FD92
:1044B0001A95F801EE0FFF1FE00FF11FEC50F24FBD
:1044C000808161E08F77DF91CF911F910F91FF90F5
:1044D000EF90DF90CF900C9458DD80E49CE9F701D9
:1044E000918380838FEF8883DF91CF911F910F910C
:1044F000FF90EF90DF90CF900895809135049091D8
:104500003604009731F04AE050E070E060E00D942E
:10451000520960E070E0CB0108958091D20D82FFD6
:104520000BC063E680ED95E00E9473A90E9423DF33
:104530000E94C8AC81E0089580E008958091350420
:1045400090913604009731F04AE050E070E060E06E
:104550000D94250860E070E0CB010895EFDF97FD32
:104560000AC0ECDF6F3F71058105910509F02CF45D
:10457000E5DF862F089580E008958FEF08958091FC
:10458000350490913604892B39F0E8DF91E08111F0
:1045900001C090E0892F089591E0FCCFCFDFCB01DF
:1045A0000895CF93DF93CDB7DEB720E248855985D4
:1045B0006F818E810E9471D9DF91CF91089563E957
:1045C00072E084E690E00E9428A96AEB72E084E63B
:1045D00090E00C9428A98111F2CF68EB71E084E19E
:1045E00090E00C9428A90E9412C4F5CF0E94F39089
:1045F000F2CF8091670E9091680E891B8F7039F40D
:1046000081E090912206913019F080E0089581E0D8
:1046100008958F929F92AF92BF92EF92FF920F9365
:104620001F93CF93DF93EC018B01E42EF22E809148
:10463000850E9091860E8C179D07C9F123EBC4332C
:10464000D20709F03FC08E57924A71F40E94BFDE34
:104650006E517B4F8F4F9F4F60931A0570931B05D0
:1046600080931C0590931D05D093860EC093850EF4
:1046700030E020E000932F08109330082093310899
:1046800030933208E0922708F0922808CE57D24A99
:1046900021F4109222051092190582E080937C0289
:1046A00081E080933F081092230510921E05DF9150
:1046B000CF911F910F91FF90EF90BF90AF909F907F
:1046C0008F90089522EACE37D20771F68453934B28
:1046D00019F0CEE7D2EAC8CF0E94BFDE80901A055B
:1046E00090901B05A0901C05B0901D0568197909D4
:1046F0008A099B0997FFEDCFC0915E087ADF882376
:1047000041F3C770C73029F7C4E1DDE7ADCFE091D1
:104710001905E63010F581E08E0F80931905409160
:104720002F085091300860913108709132089091B3
:1047300027088091280828E0E29FF0011124E75122
:10474000FB4F2091850E3091860E3183208342836A
:1047500053836483758396838783089520E040E0C4
:1047600070E060E08EE792EA54CFE0911905EE2305
:1047700081F0E150E093190588E0E89FF0011124F1
:10478000E751FB4F6281738127814681808191814E
:1047900040CFE4CFCF93DF9300D01F92CDB7DEB7E9
:1047A0000F94F0120F94230B69837A838B839C837D
:1047B000CE0101960E94A1990F900F900F900F903B
:1047C000DF91CF9108950F94250B20E030E048EC65
:1047D00051E40F94840BDECFCF92DF92EF92FF92E1
:1047E0006B017C0120E030E0A9010F941F0B20E059
:1047F00030E040E05FE387FF04C020E030E040E0CD
:104800005FEBC701B6010F94A7110F94EB12CB0118
:10481000FF90EF90DF90CF900C9449A20F94250B5E
:10482000DBCFAF92BF92CF92DF92EF92FF920F93C6
:104830001F93CF93DF93EC015B018A01FB01199574
:1048400087FD16C0C82ED12CF12CE12C2196F80141
:10485000C082D182E282F382CE01DF91CF911F919B
:104860000F91FF90EF90DF90CF90BF90AF900895A1
:10487000982F907E903CA9F48F7190E0B0E0A0E07A
:104880006C017D0126E0CC0CDD1CEE1CFF1C2A9582
:10489000D1F7CE010196F50119958F73C82A22969A
:1048A000D6CF982F907F903E11F58F7090E0B0E0BA
:1048B000A0E06C017D0186E0CC0CDD1CEE1CFF1C31
:1048C0008A95D1F7CE010196F50119958F73C82A03
:1048D00096E0CC0CDD1CEE1CFF1C9A95D1F7CE01A6
:1048E0000296F50119958F73C82A2396B0CF982F99
:1048F000987F903F79F5877090E0B0E0A0E06C0180
:104900007D01F6E0CC0CDD1CEE1CFF1CFA95D1F706
:10491000CE010196F50119958F73C82AA6E0CC0C3B
:10492000DD1CEE1CFF1CAA95D1F7CE010296F50105
:1049300019958F73C82AB6E0CC0CDD1CEE1CFF1C49
:10494000BA95D1F7CE010396F50119958F73C82A50
:1049500024967DCF982F9C7F983FE1F5837090E05F
:10496000B0E0A0E06C017D0156E0CC0CDD1CEE1C3B
:10497000FF1C5A95D1F7CE010196F50119958F7359
:10498000C82A66E0CC0CDD1CEE1CFF1C6A95D1F732
:10499000CE010296F50119958F73C82A76E0CC0CEA
:1049A000DD1CEE1CFF1C7A95D1F7CE010396F501B4
:1049B00019958F73C82AE6E0CC0CDD1CEE1CFF1C99
:1049C000EA95D1F7CE010496F50119958F73C82A9F
:1049D00025963DCF982F9E7F9C3F09F049C081705E
:1049E00090E0B0E0A0E06C017D0186E0CC0CDD1C25
:1049F000EE1CFF1C8A95D1F7CE010196F5011995A1
:104A00008F73C82A96E0CC0CDD1CEE1CFF1C9A9517
:104A1000D1F7CE010296F50119958F73C82A26E0C9
:104A2000CC0CDD1CEE1CFF1C2A95D1F7CE010396A1
:104A3000F50119958F73C82A36E0CC0CDD1CEE1CED
:104A4000FF1C3A95D1F7CE010496F50119958F73A5
:104A5000C82A46E0CC0CDD1CEE1CFF1C4A95D1F7A1
:104A6000CE010596F50119958F73C82A2696EFCECB
:104A7000982F907C903841F4807C803869F421969E
:104A8000CE01F5011995F8CF8E7F8D3F28F0219644
:104A9000CE01F5011995F8CFC12CD12C7601D7CED6
:104AA0001F93CF93DF9300D01F92CDB7DEB710E0F6
:104AB000AE014F5F5F4F62E17AE1B3DE49815A8117
:104AC0006B817C81452B462B472B11F01F5FF0CF6C
:104AD000812F0F900F900F900F90DF91CF911F912A
:104AE00008951F93CF93DF9300D01F92CDB7DEB709
:104AF00010E0AE014F5F5F4F6FE07AE192DE4981D7
:104B00005A816B817C81452B462B472B11F01F5F0F
:104B1000F0CF812F0F900F900F900F90DF91CF91DA
:104B20001F9108959CE0899F802D112491E0980F9A
:104B30009093E8042CE0280F2093480830E02E5F83
:104B40003F4F4091BF0E4217130619F014F080E05A
:104B500008952091C10E9217D0F7662341F08E5F21
:104B60000E941AE1809148088E5F0E941AE18091AC
:104B700048089091BF0E891750F32091C10E909173
:104B8000E804291720F31092C20E8093C30E81E02F
:104B900008952091E704022E000C330B82171306B0
:104BA00041F08093E70468EF73E18BE89EE00C949A
:104BB000C9E10895CF93DF93FC0125AD211104C015
:104BC00021E025AF0E9414E0C0918D0ED0918E0E91
:104BD000E091BC0EF091BD0E82E01995E091BC0E03
:104BE000F091BD0E81E0199530E020E044E1BE0176
:104BF0008BE89EE00E9410E02EEB3EE047E1BE0114
:104C00008BE89EE00E9410E0E091BC0EF091BD0E9A
:104C100080E0DF91CF911994EF92FF920F931F9351
:104C2000CF93DF93CDB7DEB72C970FB6F894DEBFE6
:104C30000FBECDBF6F3F71058105910509F0B8F436
:104C400087E89EE0BAD9E0918F0EF091900E3196F0
:104C5000849190E02C960FB6F894DEBF0FBECDBFC6
:104C6000DF91CF911F910F91FF90EF9008951091D8
:104C7000C20E0091C30E2091210521110FC048EDF5
:104C800053E1602F812F0E9459E390E080E0180FDC
:104C90001093C20E0093C30E9927DCCFE0908F0EC5
:104CA000F090900E2BE83EE03A832983212F30E0EC
:104CB0003C832B83202F30E03E832D8318861F8278
:104CC0002FEF3FEF3A8729871C861B869E012F5FB7
:104CD0003F4FAB01BC01C7010E946EC9B7018BE811
:104CE0009EE00E94C9E18F819885D1CFDF92EF923B
:104CF000FF920F931F93CF93DF9300D01F92CDB7F6
:104D0000DEB77C01062F142F112309F443C0AE0136
:104D10004F5F5F4F6FE07AE1C70183DD7C016981FE
:104D20007A818B819C81611571058105910591F1D5
:104D3000DD24DA94D10E6D3371058105910581F082
:104D40006E3771058105910559F06A32710581054B
:104D5000910581F565E470E080E090E05DDF1D2D58
:104D6000602F70E089819A81AB81BC81CD97A105CC
:104D7000B105E9F480E390E0680F791F072E000C7D
:104D8000880B990B49DF115029F0612F70E0C701A2
:104D9000C3D9181B812F0F900F900F900F90DF91A8
:104DA000CF911F910F91FF90EF90DF90089581E3D5
:104DB00090E0E2CF31DF1D2DA7CF6FEF7FEFACC9C1
:104DC000EF92FF920F931F93CF93DF93CDB7DEB790
:104DD0002C970FB6F894DEBF0FBECDBF1091C20E58
:104DE0000091C30E2091210521111BC048E953E118
:104DF000602F812F0E9459E390E080E0180F1093FC
:104E0000C20E0093C30E99272C960FB6F894DEBFFE
:104E10000FBECDBFDF91CF911F910F91FF90EF900B
:104E20000895E0908F0EF090900E2BE83EE03A83CC
:104E30002983212F30E03C832B83202F30E03E83D9
:104E40002D8318861F827A8769871C861B869E01A0
:104E50002F5F3F4F42E15AE1BC01C7010E942ECAB9
:104E6000B7018BE89EE00E94C9E18F819885C6CF8B
:104E70006FEF7FEFA5CFAF92BF92CF92DF92EF920D
:104E8000FF920F931F93CF93DF935C016B0129DE99
:104E9000E82EC60105DEF12C03E110E0081B110924
:104EA000C5E20E151F050CF4CFE18C2F90E09C019C
:104EB0002E5F3F4F4091BF0E4217130609F09CF53D
:104EC00009972091C10E281719066CF160914908C5
:104ED0001092C20EC093C30E45E1C50107DFD1E0B9
:104EE000C114D104A9F06AE370E080E090E094DEA0
:104EF0000E151F05D4F4C45F8091BF0EC81740F093
:104F00002091C10E4C2F4950550B241715067CF4E7
:104F1000DF91CF911F910F91FF90EF90DF90CF9095
:104F2000BF90AF900895D0E0DBCFDD2389F3802FD1
:104F3000880F080F000F0093C20EC093C30E60E2EB
:104F400070E080E090E068DEC601DF91CF911F91B4
:104F50000F91FF90EF90DF90CF90BF90AF9088CFF0
:104F60000F931F93CF93DF93FC01EB0180912F08E8
:104F700090913008A0913108B0913208B7FF08C075
:104F800010922F08109230081092310810923208B7
:104F90008091330890913408A0913508B09136087B
:104FA00040912F085091300860913108709132087B
:104FB00084179507A607B70744F480932F089093AA
:104FC0003008A0933108B093320880917C02882386
:104FD000D9F060912F08709130088091310890913C
:104FE0003208009137081091380820913908309123
:104FF0003A08600F711F821F931F1995BC018091A1
:105000003D0890913E0837DF80911C08811108C04F
:1050100080912C088823C9F180917C028823A9F112
:1050200080913B0890913C080097B1F040912F0887
:105030005091300860913108709132080091370822
:10504000109138082091390830913A08400F511FCB
:10505000621F731FFE011995E0912D08F0912E0833
:10506000309741F080912C08811103C080911C0879
:105070008111199580911C0810921C08882329F031
:10508000DF91CF911F910F9170CBDF91CF911F9145
:105090000F91089568E579E183EE93E261CF62E8CC
:1050A00079E18CE89CE15CCF66E979E189EA9CE1F1
:1050B00057CF6AEA79E186EC9CE152CF6CEC79E15A
:1050C00083EE9CE14DCF6AED79E18AEF9CE148CF18
:1050D0006EE679E187E19DE143CF6EEB79E18EE009
:1050E00094E23ECF6EEE79E184E39DE139CF6CEF3F
:1050F00079E18BE39DE134CFCF92DF92EF92FF9283
:105100000F93CF93DF93982F862F6A017901692F30
:1051100009DD882309F440C0C7010023E1F0E1DC88
:10512000C82F43E1481B60914908C601DFDDCC234D
:1051300099F1D82FDD0FD80FDD0F6AE370E080E022
:1051400090E06ADDD73048F060E270E080E090E007
:1051500063DDD81BF7CFA4DCE3CF809148089C2FF8
:10516000990F990FC91BCC0FC058C093C20E8093E2
:10517000C30EC701002341F0DF91CF910F91FF9043
:10518000EF90DF90CF9019CEDF91CF910F91FF90EC
:10519000EF90DF90CF906CCEDF91CF910F91FF9089
:1051A000EF90DF90CF9008954F925F926F927F9231
:1051B0008F929F92AF92BF92CF92DF92EF92FF9227
:1051C0000F931F93CF9310925D0410925C042FE312
:1051D0002093600410925F0410925E0410926104A8
:1051E0001092620410926304109264049C01F9010D
:1051F00090812F5F3F4F9032D1F39E34C9F481816B
:1052000090ED980F9A3020F08D3211F08B3281F4AE
:1052100032969F012F5F3F4F808180538A3008F480
:105220006FC09F012F5F3F4F8081803209F46AC0B9
:10523000F0937B08E0937A088F010F5F1F4FC081C6
:105240006AE270E0C8010F94B614009731F0FC01D7
:10525000319780818032E1F31182CD3421F0C43561
:1052600011F0C734E9F5F80180810F5F1F4F8032DC
:10527000D1F380538A30A0F5C093600490E080E0C1
:10528000AAE0AF014F5F5F4F2081022E000C330B6D
:1052900020533109A89FB001A99F700D1124C901A5
:1052A000860F971FFA01208120532A3050F39093E4
:1052B0005F0480935E04DF0131962C912032D9F394
:1052C000CD3461F58E31910539F0F4F487319105D3
:1052D00019F08C31910511F5B0935D04A0935C0435
:1052E000CF911F910F91FF90EF90DF90CF90BF90E3
:1052F000AF909F908F907F906F905F904F900895A8
:10530000F90187CFF9018DCF853791053CF08737BB
:10531000910514F3803A23E09207F1F210917A0894
:10532000C12CD12C760150E040E0812C912C54010D
:10533000839401C0DF01FD0131962C91222309F4F1
:1053400081C02132E1F4CD34D1F480329105B9F439
:10535000C0926104D0926204E0926304F09264040B
:10536000F0935D04E0935C0463E270E0CF010F947E
:10537000B614009709F4B4CFDC011C92B1CF2154CC
:105380002A3108F05AC0DF013D91303291F060EDD2
:10539000630F6A30E8F03E3271F4318130533A30B5
:1053A000B8F04115510519F4AF014150510930E0F1
:1053B00013C0FD01E8CF3D3211F03B3291F731814E
:1053C00060ED630F6A3020F03E3259F73281E6CF4C
:1053D0003E2F311B309759F3622F70E024013501C5
:1053E00004C0440C551C661C771C2A95D2F7C428AF
:1053F000D528E628F7286E5B7B4FDB013C932081A4
:1054000021542A3108F496CFDF01FD012D9122238A
:1054100009F490CF30ED320F3A30B8F333ED320F5C
:10542000323098F32B3289F39F012F5F3F4F608119
:10543000603209F07FCFF901F7CF41155105F9F638
:10544000AD01DDCF50935D0440935C04C0926104D4
:10545000D0926204E0926304F092640441CFE0EBE6
:10546000F8E01082118208954F925F926F927F92BE
:105470008F929F92AF92BF92CF92DF92EF92FF9264
:10548000CF93DF9300D000D01F921F92CDB7DEB72D
:105490009E838D83DB01CD90DD90ED90FC9080911B
:1054A0006F0890917008A0917108B091720889837B
:1054B0009A83AB83BC839C01AD01C701B6010F94F5
:1054C000A6112B013C01AD81BE818D909D90AD90C8
:1054D000BC9080916B0890916C08A0916D08B09180
:1054E0006E088D839E83AF83B88727E137EB41ED4C
:1054F00058EBC301B2010F94CD1387FDD1C027E053
:1055000030E04AE753E4C301B2010F941F0B1816B1
:105510000CF4C6C02D813E814F815885C501B40170
:105520000F94A6112B013C0127E137EB41ED58EB1D
:105530000F94CD1387FDB4C023E030E046E953E477
:10554000C301B2010F941F0B18160CF4A9C020E080
:1055500030E0A9016D817E818F8198850F94A7111C
:105560002B013C0120E030E040EF51E40F941F0B91
:1055700087FF06C0412C512C30EF632E31E4732E8F
:1055800027E137EB41ED58E3C301B2010F94A611B7
:105590009B01AC01C501B4010F94CD1387FD80C000
:1055A00020E030E046E953E46D817E818F8198856B
:1055B0000F94A7112B013C0120E030E047E853E4B1
:1055C0000F94CD13181634F4412C512C27E8622E79
:1055D00023E4722E27E137EB41ED58E3C301B2011A
:1055E0000F94A7119B01AC01C501B4010F941F0BCF
:1055F00018160CF455C020E030E0A90169817A81C9
:105600008B819C810F94A7114B015C0120E030E05D
:1056100040EF51E40F941F0B87FF06C0812C912CA3
:1056200090EFA92E91E4B92E27E137EB41ED58E335
:10563000C501B4010F94A6119B01AC01C701B601CD
:105640000F94CD1387FD2CC020E030E04AE753E4EF
:1056500069817A818B819C810F94A7114B015C0138
:1056600020E030E04CE553E40F94CD13181634F4E9
:10567000812C912C8CE5A82E83E4B82E27E137EB02
:1056800041ED58E3C501B4010F94A7119B01AC0192
:1056900091E09983C701B6010F941F0B18160CF403
:1056A0001982898128960FB6F894DEBF0FBECDBF50
:1056B000DF91CF91FF90EF90DF90CF90BF90AF90B0
:1056C0009F908F907F906F905F904F9008952F9252
:1056D0003F924F925F926F927F928F929F92AF9282
:1056E000BF92CF92DF92EF92FF921F93CF93DF93FF
:1056F00000D01F92CDB7DEB74A011901FC014080EE
:10570000518062807380FB01C080D180E280F38091
:1057100020917C0830917D0840917E0850917F084F
:10572000C301B2010F941F0B81110EC011E0A7013C
:105730009601609180087091810880918208909113
:1057400083080F941F0B811110E080E1ECE7F8E073
:10575000AEE4B8E001900D928A95E1F7F401808003
:105760009180A280B38020910A0230910B02409177
:105770000C0250910D02C501B4010F941F0B882338
:1057800079F18092560890925708A0925808B092EA
:10579000590880920A0290920B02A0920C02B092D9
:1057A0000D0220E030E040E05FE36091B20D7091C7
:1057B000B30D8091B40D9091B50D0F94840B698356
:1057C0007A838B839C83CE0101960E94F48D80E1C5
:1057D000ECE7F8E0AEE4B8E001900D928A95E1F7CD
:1057E00040924E0850924F086092500870925108B3
:1057F000C0925208D0925308E0925408F092550893
:10580000F101208131814281538160915A08709168
:105810005B0880915C0890915D080F94A7116093DC
:105820005A0870935B0880935C0890935D0860E071
:1058300070E080EA91E4112371F02AEF3EE74AE23A
:105840005FE36091B60D7091B70D8091B80D9091A6
:10585000B90D0F94840B69837A838B839C83CE016B
:1058600001960E94F48D80E1ECE7F8E0AEE4B8E048
:1058700001900D928A95E1F70F900F900F900F9085
:10588000DF91CF911F91FF90EF90DF90CF90BF906D
:10589000AF909F908F907F906F905F904F903F90D0
:1058A0002F9008950F931F93CF93DF9300D000D0D4
:1058B0001F921F92CDB7DEB78C010E9415D91D82B1
:1058C0001E821F82188620E030E040E05FE3609196
:1058D00084087091850880918608909187080F94BC
:1058E000A71169837A838B839C839E012B5F3F4F33
:1058F000AE014F5F5F4F60E878E08CE798E0E7DE4D
:105900001D821E821F82188620E030E040E05FE3A7
:10591000F80160857185828593850F94A71169834D
:105920007A838B839C83B8016C5F7F4F9E012B5FD2
:105930003F4FAE014F5F5F4FC801C9DE28960FB6DB
:10594000F894DEBF0FBECDBFDF91CF911F910F91B5
:1059500008952F923F924F925F926F927F928F9213
:105960009F92AF92BF92CF92DF92EF92FF920F93EE
:105970001F93CF93DF93CDB7DEB7A0970FB6F89400
:10598000DEBF0FBECDBF8C011B0140907C08509044
:105990007D0860907E0870907F08809080089090CD
:1059A0008108A0908208B0908308DC018D919D91C0
:1059B0000D90BC91A02D8D879E87AF87B88B9C01E1
:1059C000AD01C301B2010F94A6116B017C01D80196
:1059D00014968D919D910D90BC91A02D898B9A8BE1
:1059E000AB8BBC8B9C01AD01C501B4010F94A6111A
:1059F0006D8B7E8B8F8B988FD1018D919D910D90AA
:105A0000BC91A02D8D839E83AF83B8879C01AD018F
:105A1000C301B2010F94A611698F7A8F8B8F9C8F6F
:105A2000D10114968D919D910D90BC91A02D8987E7
:105A30009A87AB87BC879C01AD01C501B4010F9467
:105A4000A6116D8F7E8F8F8F98A3A7019601C70136
:105A5000B6010F94840B6B017C012D893E894F891F
:105A6000588DCA01B9010F94840B9B01AC01C70189
:105A7000B6010F94A7114B015C012D853E854F8522
:105A800058896D817E818F8198850F94A6112B0195
:105A90003C0129893A894B895C8969857A858B859E
:105AA0009C850F94A6116B017C01A3019201C30197
:105AB000B2010F94840B2B013C01A7019601C70191
:105AC000B6010F94840B9B01AC01C301B2010F948A
:105AD000A7110F9413146B017C01298D3A8D4B8D06
